:100000000C94EE030C941F040C941F040C941F0416
:100010000C941F040C941F040C941F040C941F04D4
:100020000C941F040C941F040C941F040C941F04C4
:100030000C941F040C941F040C941F040C941F04B4
:100040000C941F040C941F040C941F040C941F04A4
:100050000C941F040C941F040C941F040C94DC16C5
:100060000C941F040C94000F0C949D0D0C941F0411
:100070000C941F040C941F040C941F040C941F0474
:100080000C941F040C941F040C941F040C941F0464
:100090000C941F040C941F040C941F040C94C00FA8
:1000A0000C941F040C941F040C941F040C941F0444
:1000B0000C941F040C941F040C9481120C94F210E5
:1000C0000C941F040C941F040C941F040C941F0424
:1000D0000C941F040C941F040C941F040C941F0414
:1000E0000C941F0470167316621666166C16AA1608
:1000F00077167B168116851689168F169316971616
:10010000AA169D16A116A5160C94D60D0C94570F81
:100110000C94700E0C94B61B0C9477160C948516E8
:100120000C94930E0C9470160C9421040C949B0E5A
:100130000C9451040C949D160C9481160C94891601
:100140000C94FB0E0C94C70D0C942A160C947F0E85
:100150000C94A5160C9466160C94AA160C94A11671
:100160000C94F80D0C947B160C946C160C948F1652
:100170000C9462160C946F0E0C9476040C94EA0D99
:100180000C94CB0E0C9493160C9497160C943C057F
:100190000C941A050C949E0F0C94D0040C947316B6
:1001A000202041433A20417070656E6465642045AB
:1001B00076656E7400202020523A2050574D436FD0
:1001C0006E74726F6C6C65722043726561746564E5
:1001D00000202041433A20416464696E6720504505
:1001E00000202020523A2044656C617920437265DA
:1001F0006174656400202041433A20416464696E63
:1002000067204445002020414E3A2052756E6E69A9
:100210006E67204E6F646500204C4E3A2052583A6B
:100220002000204C4E493A204D6170706564206179
:100230006E20616E696D6174696F6E00466F756ED8
:1002400064206475706C69636174650046756E63E3
:1002500074696F6E2070617374206C696D697400CD
:10026000204C4E3A20416464726573733A2000203A
:100270004C4E3A20536C6F74205374617475733A0A
:100280002000204C4E3A2053706565643A200044AB
:10029000697361626C696E672066756E6374696FFD
:1002A0006E207472696767657265642E00204C4E1B
:1002B0003A20446972656374696F6E3A2000094C94
:1002C0004E3A2056616C75653A2000204C4E3A201B
:1002D00046756E6374696F6E3A20002020202048B6
:1002E0003A20437265617465642050574D48616ED1
:1002F000646C65720020202020483A204F666673A7
:1003000065743A090020202020483A2050696E3A4E
:10031000090020202020483A204D61782056616C49
:100320003A090020202020483A204D696E2056616D
:100330006C3A090020202020483A204E657720534F
:100340006572766F2100202020523A2047656E6545
:100350007261746564204C696E6B0020617420705A
:100360006F732000202020523A2056616C75653A48
:100370002000202020523A204572726F722C207388
:10038000657175656E63655F6C656E67746820691D
:100390007320746F6F206C6F6E672E0020202052C8
:1003A0003A2053657175656E6365204C656E6774A0
:1003B000683A0900202020523A2053706565643A5B
:1003C0000900202020523A205461726765743A096E
:1003D00000202020523A2043757272656E743A09EB
:1003E00000202020523A2041646465642050574D1B
:1003F000204576656E7400202020523A20416464C6
:10040000696E672050574D204576656E7400202038
:100410002020483A205261772050574D2076616C59
:100420003A0900202020523A2043757272656E749A
:100430002054696D653A000957616974696E6720D7
:10044000666F723A00202020523A2043757272651E
:100450006E742054696D653A00202041433A20496A
:100460006E697469616C697A656420416E696D6159
:1004700074696F6E436861696E002020414E3A20B6
:1004800043726561746564204E6F6465002020418D
:100490004E3A20417070656E64656420416E696DEE
:1004A0006174696F6E20746F204E6F646500000088
:1004B0002100240027002A002D0030003300010114
:1004C0000000040107010A01204C4E3A2045525217
:1004D0004F5200204C4E493A2053656C6620496EBD
:1004E000697469616C697A656400204C4E493A20F0
:1004F000496E697469616C697A6564204C4E20703C
:100500006172742E00204C4E493A20536574746910
:100510006E6720416464726573730046726565207E
:100520004D656D6F72793A20002D2D2D2D2D2D2DBD
:100530002D2D2D2D534554555020454E4445442DC9
:100540002D2D2D2D2D2D2D2D2D2D00706F746174C1
:100550006F004372656174696E67204E6F64652C2D
:10056000206164646974696F6E616C20416E696DAD
:100570006174696F6E436861696E20616E642061A9
:100580006464696E6720436861696E7320746F20CC
:100590004E6F64650046726565204D656D6F7279BA
:1005A0003A200044656C6179204576656E7420615F
:1005B000646465640A0046726565204D656D6F72FE
:1005C000793A200046726565204D656D6F72793A03
:1005D000200044656C6179204576656E7420616405
:1005E0006465640A0046726565204D656D6F7279B9
:1005F0003A200050574D204576656E742061646442
:1006000065640A0046726565204D656D6F72793AC2
:100610002000416E696D6174696F6E204465636C82
:10062000617265640A00536572766F204465636C7D
:10063000617265640A0046726565204D656D6F7272
:10064000793A20002D2D2D2D2D2D2D2D2D2D2D2DBB
:100650002D2D2D2D2D46454152204D5920575241CB
:1006600054482121212D2D2D2D2D2D2D2D2D2D2D9C
:100670002D2D2D2D2D2D2D2D002D2D2D2D2D2D2DD7
:100680002D2D2D2D2D2D4920414D20544845204DF7
:1006900049474854592054524F47444F5221212131
:1006A0002D2D2D2D2D2D2D2D2D2D2D2D2D2D2D2D7A
:1006B0002D0046726565204D656D6F72793A200098
:1006C000000020002300260029002C002F0032000B
:1006D00000010000030106010901000022002500BD
:1006E00028002B002E00310034000201000005011B
:1006F00008010B01050505050705080808080202A1
:1007000002020A0A080804040404010101010101AB
:1007100001010303030303030303040707070C0C8E
:100720000C0C0C0C0C0C0202020206060606060655
:1007300006060B0B0B0B0B0B0B0B010210202008FA
:10074000081020401020408002010201080402012C
:10075000010204081020408080402010080402019B
:1007600080040201804020100804020108040201F4
:10077000010204081020408001020408102040807B
:1007800000000A0B02090C0D0E080703040100000B
:100790000000000000000000000000000000000059
:1007A0000000000000000000000000001211100016
:1007B0000000000000000000000000000000000039
:1007C000000000000000204C4E3A20537461746514
:1007D000204368616E6765640000B61B11241FBE6C
:1007E000CFEFD1E2DEBFCDBF00E00CBF12E0A0E052
:1007F000B2E0E2EDFCE300E00BBF02C007900D9217
:10080000A839B107D9F724E0A8E9B2E001C01D92E8
:10081000AB3BB207E1F713E0CEEED3E000E006C059
:1008200021970109802FFE010E943F1ECD3ED10776
:1008300080E00807A9F70E9426170C94671E0C9405
:1008400000000F931F93CF93DF938C01DC0114966C
:10085000CD91DC911597209769F088819981DC0111
:10086000ED91FC910280F381E02D19950B80DC81E4
:10087000C02DF1CFF801C681D781209769F088811A
:100880009981DC01ED91FC910280F381E02D1995B5
:100890000B80DC81C02DF1CFDF91CF911F910F91A3
:1008A0000895CF93DF93EC018E819F81892B21F4F2
:1008B0008C819D819F838E83EE81FF8180819181D8
:1008C000DC01ED91FC910190F081E02D19958111F1
:1008D0000AC0EE81FF81228133813F832E8381E034
:1008E000232B09F480E0DF91CF910895CF92DF921E
:1008F000EF92FF92CF93DF93EC018A819B81AC81D1
:10090000BD81892B8A2B8B2B81F40E94D016CE803F
:10091000DF80E884F984DC01CB018C0D9D1DAE1DC8
:10092000BF1D8A839B83AC83BD8385E494E00E94D2
:100930004D130E94D0164AE00E94D21287E394E041
:100940000E944D136A817B818C819D814AE00E94C7
:10095000D2120E94CE12CA80DB80EC80FD800E9401
:10096000D016C616D706E806F90630F41A821B829E
:100970001C821D8280E001C081E0DF91CF91FF9059
:10098000EF90DF90CF900895CF93DF93EA0180E658
:1009900092E00E944D13CE01DF91CF910C9441154E
:1009A0000F931F93CF93DF93EC0183E294E00E94B7
:1009B0004D130E94D0164AE00E94D212AC81BD8134
:1009C000EA85FB85EE0FFF1F8D919C91E80FF91FC3
:1009D00000811181EE81FF81A80166818781908568
:1009E0000E94C5158EE094E00E944D13C8010E943C
:1009F00041158A859B8501969B878A87EC81FD81BD
:100A0000228133818217930769F41B861A868481B9
:100A100095819D838C83892B39F48A819B819D8369
:100A20008C8302C081E001C080E0DF91CF911F91F3
:100A30000F910895CF93DF93FC01C085D185209756
:100A400081F0E881F9810680F781E02D40E050E1F6
:100A50006681878190850E94C5150A80DB81C02D43
:100A6000EECFDF91CF91089588EC94E00C946E1353
:100A700086EC97E00C946E130F931F93CF93DF9344
:100A80008C0185E092E00E946E13D8011496CD91FE
:100A9000DC91159721E0209791F08A81882359F005
:100AA00088819981DC01ED91FC910190F081E02D2C
:100AB00019958A8320E00B80DC81C02DECCFF801F2
:100AC00096818781C92FD82F2223A9F081E0209712
:100AD00021F19A81992359F088819981DC01ED9166
:100AE000FC910190F081E02D19958A8380E00B80C4
:100AF000DC81C02DECCF209771F088819981DC01D9
:100B0000ED91FC910190F081E02D19958A830B8085
:100B1000DC81C02DF0CF80E01CC08823E1F3D80138
:100B20001496ED91FC91159791E0309729F09283FE
:100B30000380F481E02DF9CFD8011696ED91FC9158
:100B4000179791E0309729F092830380F481E02D8C
:100B5000F9CF91E08927DF91CF911F910F910895EF
:100B6000AF92BF92CF92DF92EF92FF920F931F93BB
:100B7000CF93DF93EC017B016A0186E090E00E9455
:100B8000EF1B8C01FC0115821482C114D104A9F061
:100B9000888599858E199F0997FF03C09195819546
:100BA0009109B6010E94091E80E090E00E94621D3A
:100BB0000E941C1D0E94331D02C061E070E0F8011C
:100BC000738362836138FFE37F0720F4CB01880FD2
:100BD000991F02C08FEF9FEF0E94EF1BF8019183D6
:100BE000808381ED93E00E944D13888599850E9452
:100BF000411582EC93E00E944D13C7010E944115FC
:100C000084EB93E00E944D13C6010E9441158CE9CC
:100C100093E00E944D13F801828193810E94411557
:100C20000E94CE12A12CB12CF80182819381A816CA
:100C3000B90608F05EC0288539852E153F0521F0DC
:100C4000C9018E199F0902C080E090E08C159D05B6
:100C500018F0C114D10419F4F986E88612C02E15D3
:100C60003F0518F42C0D3D1D05C0E216F30628F4CF
:100C70002C193D093987288704C082E793E00E9438
:100C80006E13AE81BF81F80120813181C501880FCB
:100C9000991FF901E80FF91F2D913C911197888553
:100CA0009985820F931F14962D913C91159712965A
:100CB0004D915C911397820F931F4817590708F4C1
:100CC000CA019183808384E693E00E944D13688576
:100CD000798580E090E04AE00E94D2128BE593E0B3
:100CE0000E944D13C5010E941E13FFEFAF1ABF0AE9
:100CF0009BCF86E493E00E946E13C801DF91CF91F1
:100D00001F910F91FF90EF90DF90CF90BF90AF9029
:100D10000895EF92FF920F931F93CF93DF9300D02C
:100D20001F92CDB7DEB77C0187EF93E04B835C83E6
:100D300069837A830E946E13F701028113814B81CC
:100D40005C8169817A810115110539F4C7010E941E
:100D5000B005F701938382830BC0F80184819581EC
:100D6000009711F08C01F9CFC7010E94B005F8017E
:100D70009583848381EE93E00F900F900F900F90F6
:100D8000DF91CF911F910F91FF90EF900C946E1314
:100D9000EF92FF920F931F93CF93DF938C017B0110
:100DA000DC011496CD91DC911597209799F484E09D
:100DB00090E00E94EF1BFC01F182E082138212821C
:100DC000D80115969C938E93149717969C938E93A7
:100DD000169711C08A819B81009711F0EC01FACF20
:100DE00084E090E00E94EF1BFC01F182E08213821C
:100DF00012829B838A8380EA91E0DF91CF911F91D9
:100E00000F91FF90EF900C946E13CF93DF93C42F4C
:100E10008DEA92E00E944D138C2F0E948C138FE874
:100E200092E00E946E13CC23A1F0C091BC02D0913D
:100E3000BD02209751F088819981DC01ED91FC91F0
:100E40000280F381E02D1995F4CF81E08093BE02FA
:100E500002C01092BE02DF91CF910895CF93DF932D
:100E60001F92CDB7DEB782E892E049830E944D130E
:100E70004981842F0F90DF91CF910C948C13CF93E5
:100E8000DF931F92CDB7DEB78FE692E069830E94B1
:100E90004D136981862F0F90DF91CF910C948C13A5
:100EA0008F929F92AF92BF92FF920F931F93CF9317
:100EB000DF93F62EC42F8BEC92E00E944D138F2C03
:100EC000912CA12CB12C4AE0C501B4010E94D21290
:100ED0008EEB92E00E944D138C2F0E948C1386E0C3
:100EE0008F1508F482C0CC2309F47FC0CF2DD0E049
:100EF0008E01000F111FE091BA02F091BB02E00FCA
:100F0000F11F80819181892B09F46FC04AE0C501EE
:100F1000B4010E94D21289E00E941313E091BA0238
:100F2000F091BB02E00FF11F0190F081E02D628192
:100F300070E080E090E04AE00E94D21289E00E94D6
:100F40001313E091BA02F091BB02E00FF11F019080
:100F5000F081E02D838190E00E941E13E091BA029F
:100F6000F091BB02E00FF11F0190F081E02D81E0D4
:100F700084838381811139C08091F1039091F203C0
:100F8000089731F584E08F1560F04091FD03FF2054
:100F900091F0219791E001C0990FCA95EAF781EA93
:100FA0000CC04091FE03259791E001C0990FCA95AE
:100FB000EAF782EA02C081EA90E1909549236091C4
:100FC000F7030E949D141092F4031092F3030DC0D6
:100FD00088EC94E0DF91CF911F910F91FF90BF902B
:100FE000AF909F908F900C946E13DF91CF911F91D3
:100FF0000F91FF90BF90AF909F908F900895FC014C
:1010000080818076803611F4818108958081807698
:1010100082958F708E5F0895CF93DF931F921F92FA
:10102000CDB7DEB72091B7043091B804CE01019658
:101030002115310519F48B5B944018C0AC01421B9B
:10104000530BE091B904F091BA0480E090E030973E
:1010500059F09C012E5F3F4F80819181820F931F39
:101060000280F381E02DF3CF840F951F9A8389834B
:1010700089819A810F900F90DF91CF910895CF933E
:10108000DF931F92CDB7DEB7FC01808191E0909392
:101090002F0380935103109230031092520382EA7F
:1010A00094E049830E94CB0E4981642F82EA94E048
:1010B0000E94CB0E81E00F90DF91CF910C946815C8
:1010C0001F93CF93DF93453F71E05707A0F5603141
:1010D00090F5EA01162FFC0187E890E09183808368
:1010E0008BE792E0938382835583448366833087C2
:1010F000278383E293E00E944D1387E890E00E94EB
:10110000411582E193E00E944D138BE792E00E942B
:10111000411585E093E00E944D13812F0E948C13AE
:1011200085EF92E00E944D13CE010E9441158BED98
:1011300092E00E946E1384E393E0DF91CF911F91C0
:101140000C946E13AF92BF92CF92DF92EF92FF9208
:101150000F931F93CF93DF93493018F08CE492E004
:1011600059C0E22EF42E8B01C090BC02D090BD027B
:10117000C42FD0E0C114D104C9F487E090E00E94EC
:10118000EF1BFC0111830083F282E382148216823A
:1011900015829093BD028093BC02CC0FDD1F80911D
:1011A000BA029091BB02C80FD91F30C0CC0FDD1F0F
:1011B0008091BA029091BB02C80FD91FA880B98054
:1011C000A114B10459F08CE392E00E946E13D50192
:1011D00011961C930E931396EC921AC0F60185811A
:1011E0009681009711F06C01F9CF87E090E00E94A2
:1011F000EF1BFC0111830083F282E38214821682CA
:101200001582D60116969C938E931597F983E883E1
:1012100082E292E0DF91CF911F910F91FF90EF90CA
:10122000DF90CF90BF90AF900C946E13CF92DF926F
:10123000EF92FF920F931F93CF93DF93EC0110E88F
:101240000FEF8091E3039091E203891709F4A4C0A2
:10125000E82FF0E0EE59FC4FF080F7FE20C09091AF
:10126000E403981751F02091E9033091EA032F5FCE
:101270003F4F3093EA032093E9038093E403009304
:10128000E5038F2D8076803621F082958F708E5FFA
:1012900001C080E08093E603811107C044C08091C3
:1012A000E603811140C0F092E6032091E4038091AF
:1012B000E60390E0820F911D81389105A4F1C12EC3
:1012C000C21AF8948091E2039091E303981708F012
:1012D000A9C19091E403282F291B922F9093E20338
:1012E00078949091E303891708F09FC1D12C482F7F
:1012F00050E062E673E0C6018E599C4F0E944C1E7E
:101300006091E40370E06E597C4FA60182E693E0A1
:101310000E944C1E8091E3039091E403891B80930B
:10132000E3031092E4038091E3038F5F8093E30370
:101330002091E403382F321B87FD1092E303909134
:10134000E6038091E503391323C08F110EC030E00E
:101350002E593C4F4091E7035091E8034F5F5F4F98
:101360005093E8034093E7030CC02091E9033091C8
:10137000EA032F5F3F4F3093EA032093E90320E015
:1013800030E09091E3039093E4032115310531F4AB
:10139000F826F092E50355CF20E030E038872F8320
:1013A000232B09F4CCC288E192E00E944D138F8177
:1013B00098850E94FF07F82E00E010E0EF81F88585
:1013C0000F15B0F4E00FF11FE0803FE03E1518F07C
:1013D00080E30E9413136E2D70E080E090E040E106
:1013E0000E94D21280E20E9413130F5F1F4FE6CFBC
:1013F00021816281762F7F7080E8789FA00111247F
:10140000422B9081923BF1F0DA011196913B09F465
:101410005EC048F4933889F1903B09F445C0923896
:1014200009F00CC131C09C3B09F479C020F4943B15
:1014300009F4F5C003C19D3B09F481C2903D09F454
:1014400081C0FCC065FD03C081E090E002C082E085
:1014500090E020E030E0232B09F471C2440F551FC7
:101460006071840F951FDF91CF911F910F91FF90B5
:10147000EF90DF90CF900C94000080E090E0892BFB
:1014800009F45DC281E006C080E090E0892B09F498
:1014900056C280E0DF91CF911F910F91FF90EF90A6
:1014A000DF90CF900C94000080E090E0892B09F44D
:1014B00046C2462F40726071CD01DF91CF911F91DE
:1014C0000F91FF90EF90DF90CF900C94000066FF9B
:1014D00013C080E090E0892B09F431C2462F40729E
:1014E0006071CD01DF91CF911F910F91FF90EF902F
:1014F000DF90CF900C94000080E090E0892B09F4FD
:101500001EC2462F40716072CD01DF91CF911F91B5
:101510000F91FF90EF90DF90CF900C94000020E0AF
:1015200030E0232B09F40BC2462F40726071CD01CD
:10153000DF91CF911F910F91FF90EF90DF90CF90AF
:101540000C940000822F8076803219F1803619F0D9
:101550008111F5C11EC080E090E0892B09F4EFC134
:101560001381812F807D803109F0E9C10481C1E0C0
:10157000D1E041E08D2F812309F040E02D2F202381
:10158000DD0F6C2F80E80E940000CF5FC53089F727
:10159000D6C180E090E0892B09F4D1C1822F8F71F0
:1015A00030E8839FC0011124860F911D25FB22275F
:1015B00020F901963381448150E03D3729F060E8FD
:1015C000369F400D511D1124772381F0723081F038
:1015D000743081F0763081F0783081F07A3081F0AB
:1015E0007C3081F07E3081F0672F0FC061E40DC048
:1015F00062E40BC063E409C064E407C065E405C0AD
:1016000066E403C067E401C068E4DF91CF911F91F5
:101610000F91FF90EF90DF90CF900C9400002C334F
:1016200069F48DC19C2D980F59CE6091E403482F29
:10163000461B50E070E06E597C4F68CE0E94CE127F
:101640000F80D885C02D8881873E09F011C189851A
:101650000C8110E090E8899F000D111D11246A8112
:101660008091F703C090F803D090F9032091F10323
:101670003091F20386137DC0C016D10609F05AC01E
:101680002630310501F58C852B8530E060E8869F9A
:10169000200D311D11248091F5039091F6038217DE
:1016A000930789F061E080E090E00E947A1388EC73
:1016B00094E0DF91CF911F910F91FF90EF90DF9019
:1016C000CF900C946E1361E088E090E00E947A1352
:1016D000C6010E94511561E08D810E94271561E0CD
:1016E0008E810E94E01461E08A850E94B71461E057
:1016F0008B810E949D1361E088E090E00E947A1344
:101700008FEE88838091F5039091F603282F2F7731
:101710002B87880F892F881F990B91958C87CE0175
:10172000DF91CF911F910F91FF90EF90DF90CF90BD
:101730000C94BE132430310509F001C161E082E050
:1017400090E00E947A136091F8037091F903462F9C
:101750004F77660F672F661F770B71958FEBDF91C1
:10176000CF911F910F91FF90EF90DF90CF900C944D
:101770009D14C016D10609F05EC0C90102970297F8
:10178000E8F48B8186FD20C080738033E9F061E04E
:101790002230310549F484E090E00E947A138A8176
:1017A0008093F7034A8105C080E090E00E947A139D
:1017B00040E06A818AEB0E949D143DC027303105CC
:1017C00049F58B8186FF05C088EC94E00E946E137A
:1017D0002DC080738033C1F76093F70361E088E028
:1017E00090E00E947A13C8010E94511561E08D813A
:1017F0000E94271561E08E810E94E01461E08A85D5
:101800000E94B71461E08B810E949D1361E088E023
:1018100090E00FC02530310571F44091FC034F7DFD
:1018200085EB0E949D148FEF8093F70361E080E0C9
:1018300090E00E947A138091F1039091F203019756
:1018400009F07DC08A818093F70361E088E090E031
:101850000E947A13C8010E94511561E08D810E9497
:10186000271561E08E810E94E01461E08B8139C010
:1018700090E6980F933010F0853BE9F52091F7033F
:10188000998129135CC0803A61F460E08A81DF911C
:10189000CF911F910F91FF90EF90DF90CF900C941C
:1018A0002715813A61F460E08A81DF91CF911F9121
:1018B0000F91FF90EF90DF90CF900C94E014823A5C
:1018C00061F460E08A81DF91CF911F910F91FF90C9
:1018D000EF90DF90CF900C94B714853B81F560E0DA
:1018E0008A81DF91CF911F910F91FF90EF90DF9050
:1018F000CF900C949D13843B11F58091F10390914E
:10190000F20301970497D8F489818A3321F488EC93
:1019100094E00E946E1389818F3321F488EC94E067
:101920000E946E1361E080E090E0DF91CF911F9103
:101930000F91FF90EF90DF90CF900C947A13DF918E
:10194000CF911F910F91FF90EF90DF90CF9008956E
:10195000EF92FF920F931F93CF93DF9300D01F92CC
:10196000CDB7DEB78C0185EF91E049835A836B8355
:101970007C830E946E138AE090E00E94EF1B7C0142
:1019800080E192E0F7019183808349815A816B81E4
:101990007C81468357836087718712821382148209
:1019A000158281EE91E00E946E13B701C8010F907D
:1019B0000F900F900F90DF91CF911F910F91FF909B
:1019C000EF900C94C8068F929F92AF92BF92CF92E5
:1019D000DF92EF92FF920F931F93CF93DF9300D08C
:1019E0001F92CDB7DEB77C016B015A01B901A80186
:1019F00081ED91E009835A836B837C830E946E138F
:101A0000D70118960D911C91199749815A816B81C4
:101A10007C8101151105A9F58CE090E00E94EF1B77
:101A20008C018AE092E0F80191838083D782C6829C
:101A300013821282158214821186108613861286F2
:101A400085EB91E00E946E1384E090E00E94EF1B12
:101A5000DC0111961C930E9313961C921E92129702
:101A6000F7019187808749815A81B501C8010E9499
:101A70008906D7011896ED91FC91199760817181C3
:101A80003FC0D801ED91FC911197868197818C150B
:101A90009D0569F112960D911C9113970115110581
:101AA00081F78CE090E049835A836B837C830E94AA
:101AB000EF1B4C018AE092E0F40191838083D7828E
:101AC000C6821382128215821482118610861386B2
:101AD000128685EB91E00E946E1384E090E00E94F4
:101AE000EF1B8C01DC018D929C9249815A81B501DA
:101AF000F801808191810E948906D8016D917C91C5
:101B0000C7010F900F900F900F90DF91CF911F9111
:101B10000F91FF90EF90DF90CF90BF90AF909F908C
:101B20008F900C94C80685E094E00E94F80D21E0A7
:101B3000892B09F420E0822F08951F920F920FB68F
:101B40000F9211240BB60F922F933F934F935F93F5
:101B50006F937F938F939F93AF93BF93EF93FF9375
:101B600085E094E00E94360FFF91EF91BF91AF9115
:101B70009F918F917F916F915F914F913F912F91A5
:101B80000F900BBE0F900FBE0F901F901895FC0189
:101B9000538D448D252F30E0842F90E0821B930BD2
:101BA000541710F0CF96089501970895FC01918D78
:101BB000828D981761F0828DDF01A80FB11D5D96AF
:101BC0008C91928D9F5F9F73928F90E008958FEF1D
:101BD0009FEF0895FC01918D828D981731F0828DD1
:101BE000E80FF11D858D90E008958FEF9FEF089528
:101BF000FC01918D228D892F90E0805C9F4F821B8C
:101C000091098F739927089580E090E0892B21F046
:101C10000E94930D811125C080E090E0892B41F056
:101C200080E090E0892B21F00E94000081111CC00F
:101C300080E090E0892B41F080E090E0892B21F05A
:101C40000E940000811113C080E090E0892BA1F078
:101C500080E090E0892B81F00E94000081110AC091
:101C600008950E940000D8CF0E940000E1CF0E949A
:101C70000000EACF0C940000089585ED8093BC002D
:101C80008091BC0084FDFCCF10922E0308954091FA
:101C9000E302262F30E0240F311D21323105DCF420
:101CA00020912E032430C9F4FC0180E090E08617D7
:101CB00058F43091E3022191DC01AF53BD4FA30FE3
:101CC000B11D2C930196F3CF8091E302680F6093CE
:101CD000E30280E0089581E0089582E00895089588
:101CE000E091990280919802E81730F4F0E0E6560E
:101CF000FD4F808190E008958FEF9FEF08959091C0
:101D0000990280919802981750F4E92FF0E0E65676
:101D1000FD4F208130E09F5F9093990202C02FEF2A
:101D20003FEFC90108958091980290E020919902B7
:101D3000821B91090895CF92DF92EF92FF920F9349
:101D40001F93CF93DF937C01262F972F8A018091D9
:101D50002F03882391F0C62FD72F6E01C40ED51EF6
:101D6000CC15DD0571F06991D701ED91FC910190E1
:101D7000F081E02DC7011995F3CF642F822F0E94C7
:101D8000470EC801DF91CF911F910F91FF90EF9007
:101D9000DF90CF900895CF93DF931F92CDB7DEB73A
:101DA000698320912F032223D1F020915203203206
:101DB00040F021E030E0FC013383228380E090E0BA
:101DC00015C080913003E82FF0E0EF5CFC4F998163
:101DD00090838F5F809330038093520305C061E04E
:101DE000CE0101960E94470E81E090E00F90DF91B6
:101DF000CF910895089580E090E008950E94471ED5
:101E00001F920F920FB60F9211240BB60F922F93C1
:101E10008F939F93EF93FF93E0911504F091160435
:101E20008081E0911B04F0911C0482FD12C090811E
:101E300080911E048F5F8F7320911F04821751F0D1
:101E4000E0911E04F0E0EB5FFB4F958F80931E0442
:101E500001C08081FF91EF919F918F912F910F9001
:101E60000BBE0F900FBE0F901F901895FC01848D34
:101E7000DF01A80FB11DA35ABF4F2C91848D90E0B4
:101E800001968F739927848FA689B7892C93A0898F
:101E9000B1898C9180648C93938D848D981306C046
:101EA0000288F389E02D80818F7D80830895EF92F1
:101EB000FF920F931F93CF93DF93EC0181E0888F04
:101EC0009B8D8C8D981305C0E889F989808185FDEB
:101ED00024C0F62E0B8D10E00F5F1F4F0F731127DC
:101EE000E02E8C8DE8120CC00FB607FCFACFE88903
:101EF000F989808185FFF5CFCE010E94360FF1CFA1
:101F00008B8DFE01E80FF11DE35AFF4FF0820B8F1E
:101F1000EA89FB898081806207C0EE89FF8960833E
:101F2000E889F98980818064808381E090E0DF9195
:101F3000CF911F910F91FF90EF900895CF93DF9372
:101F4000EC01888D8823C9F0EA89FB89808185FDB1
:101F500005C0A889B9898C9186FD0FC00FB607FC12
:101F6000F5CF808185FFF2CFA889B9898C9185FF53
:101F7000EDCFCE010E94360FE7CFDF91CF910895CC
:101F80001F920F920FB60F9211240BB60F922F9340
:101F90003F934F935F936F937F938F939F93AF93F1
:101FA000BF93EF93FF938091B900887F803609F447
:101FB0009CC068F5883209F45BC090F4803109F464
:101FC00054C038F4882309F4F6C0883009F44DC0B1
:101FD000F6C0883109F44CC0803209F45DC0EFC00E
:101FE000803409F468C048F4803309F455C088335C
:101FF00009F0E5C080932C03D8C0803509F44FC0A8
:10200000883509F45DC0883409F0D9C0D6C0883954
:1020100009F4C7C0A8F4883709F467C038F48836D3
:1020200009F463C0803709F460C0C9C0883809F476
:10203000B8C0803909F45FC0803809F0C0C05BC007
:10204000803B09F486C038F4803A09F466C0883AC7
:1020500009F47FC0B4C0803C09F4A7C0883C09F4EF
:10206000A4C0883B09F48AC0AAC08091090310C0AB
:1020700090912B0380912A03981770F5E0912B0320
:1020800081E08E0F80932B03F0E0E65FFC4F8081B0
:102090008093BB0085EC86C080932C038EC0E091BA
:1020A0002B0381E08E0F80932B038091BB00F0E027
:1020B000E65FFC4F808390912B0380912A036EC0D2
:1020C000E0912B0381E08E0F80932B038091BB0066
:1020D000F0E0E65FFC4F808380912D0381116DC09D
:1020E00081E08093080384EA61C083E080932E033B
:1020F00010920703CFCF80910703803208F051C0C0
:10210000E091070381E08E0F809307038091BB006D
:10211000F0E0E951FD4F8083BDCF85EC8093BC009A
:1021200010922E0380910703803230F4E091070370
:10213000F0E0E951FD4F10826091070370E0E091FB
:10214000E502F091E60287EE92E0199510920703FE
:1021500036C084E080932E031092E4021092E302D2
:10216000E091E102F091E20219958091E302811180
:1021700005C081E08093E3021092C102E091E40285
:1021800081E08E0F8093E402F0E0EF53FD4F8081F9
:102190008093BB009091E4028091E302981708F4C9
:1021A00079CF85E88093BC000AC085EC8093BC00A1
:1021B00010922E0304C010922C030E943D0EFF913A
:1021C000EF91BF91AF919F918F917F916F915F91AF
:1021D0004F913F912F910F900BBE0F900FBE0F901C
:1021E0001F9018951F920F920FB60F9211240BB6E5
:1021F0000F920F931F932F933F934F935F936F9380
:102200007F938F939F93AF93BF93CF93DF93EF937E
:10221000FF938091590390915A0380549C4F90935F
:102220005A03809359038091590390915A039093D4
:1022300029018093280180915E038F5F80935E0364
:1022400080915F03843009F040C080915E03893043
:1022500088F48091550390E0959587958093550378
:102260008091090181FF36C1809155038068809378
:10227000550330C1D59A80917300806280937300BA
:1022800020910901809153039091540321FD09C0CD
:10229000FC01E957FF4F80819181019691838083F2
:1022A0000FC040915503FC01E058FF4F308121E001
:1022B000230F2083DC01A30FB11D4C9327FD108257
:1022C00010925E0381E080935F0380915F0383300F
:1022D00009F0AAC0E0915C03F0915D034081209178
:1022E0005B039091090150E0022E02C0559547957D
:1022F0000A94E2F7892F90E0959587958427952792
:1023000080FD04C010925E0382E08CC080915E0369
:102310008930F0F480915503308180FF09C081E05D
:1023200090E001C0880F2A95EAF78095832307C0C3
:1023300081E090E001C0880F2A95EAF7832B808323
:102340008091550390E095958795809355036CC0D7
:1023500080915E03893059F4308181E090E001C0C2
:10236000880F2A95EAF78095832380835DC080914A
:1023700060038F5F8093600390916103891748F534
:1023800010925E03A0915703B091580380916003AF
:10239000A80FB11D8C9180935503308181E090E0AE
:1023A00001C0880F2A95EAF7832B8083809124014E
:1023B000909125018A5A9C4F90935A038093590318
:1023C0008091590390915A03909329018093280199
:1023D0002BC081E080935603C0915703D0915803DE
:1023E0000091530310915403CE010E94FF0720E097
:1023F00030E0F801E058FF4F281788F4DE01A20F03
:10240000B31F5C91408191E0940F9083D801A40F99
:10241000B11D5C9397FD10822F5F3F4FEDCF10925F
:102420005E0381E080935F0380915F038230D1F58A
:1024300080915E03811111C0E0915C03F0915D0316
:10244000208181E090E000905B0302C0880F991F1B
:102450000A94E2F7822B808325C080915E038F303F
:1024600008F1E0915C03F0915D03208181E090E050
:1024700000905B0302C0880F991F0A94E2F78095D1
:102480008223808310925E0381E080935F03E0915A
:102490005303F0915403E357FF4F808191810196DC
:1024A0009183808380915F038130A1F480915E03EA
:1024B000811105C0D59A80917300806209C0809116
:1024C0005E03883338F010925F03809173008D7F34
:1024D00080937300FF91EF91DF91CF91BF91AF9106
:1024E0009F918F917F916F915F914F913F912F912C
:1024F0001F910F910F900BBE0F900FBE0F901F906A
:1025000018951F920F920FB60F9211240BB60F92CF
:102510008F939F93EF93FF93E3E7F0E080818F7DAC
:102520008083809126019091270180569A4F909345
:102530005A03809359038091590390915A039093C1
:10254000290180932801D19A80818260808384E070
:1025500080935F0310925E03FF91EF919F918F91A3
:102560000F900BBE0F900FBE0F901F901895682F05
:1025700082EA94E00C94CB0E009769F0FC01019084
:102580000020E9F73197AF01481B590BBC0185E0EA
:1025900094E00C942A1680E090E0089584E992E09B
:1025A0000C94BC128F929F92AF92BF920F931F9385
:1025B000CF93DF93CDB7DEB7A1970FB6F894DEBF08
:1025C0000FBECDBF19A2423008F44AE08E010F5D64
:1025D0001F4F842E912CA12CB12CA50194010E9497
:1025E0001D1EE62FB901CA0101501109EA3014F489
:1025F000E05D01C0E95CD801EC93232B242B252B53
:1026000061F7C8010E94BC12A1960FB6F894DEBF14
:102610000FBECDBFDF91CF911F910F91BF90AF90B3
:102620009F908F900895E0910504F0910604019029
:10263000F081E02D682F85E094E01994CF92DF922D
:10264000EF92FF92CF93DF936C01990FEE08FF0892
:10265000F7FE12C08DE20E941313EC016627772764
:10266000CB016C197D098E099F094AE00E94D212A4
:102670007C01EC0EFD1E06C04AE0C701B6010E94B7
:10268000D2127C010E94CE128E0D9F1DDF91CF9140
:10269000FF90EF90DF90CF9008950F931F93CF930B
:1026A000DF938C01C0E0D0E0F801EC0FFD1F6491D6
:1026B000662371F0E0910504F09106040190F08129
:1026C000E02D85E094E01995892B11F02196ECCF4F
:1026D000CE01DF91CF911F910F910895CF93DF939A
:1026E0000E944D13EC010E94CE128C0F9D1FDF91B2
:1026F000CF910895611107C02091F1033091F20349
:102700002817390741F09093F2038093F10386EC88
:1027100097E00C946E130895CF93DF93682F70E0C9
:1027200080E090E04AE00E94D212EC010E94CE12BA
:102730008C0F9D1FDF91CF910895CF93DF9361118F
:1027400004C09091FC039817B1F0D62FC82F809346
:10275000FC03682F8091FF030E943F07C073C033C2
:1027600019F080E090E002C088E090E06D2FDF91EA
:10277000CF910C947A13DF91CF910895AF92BF92CD
:10278000DF92EF92FF920F931F93CF93DF931F92ED
:10279000CDB7DEB75C0109E11EE2EE24E394F12C33
:1027A00093E0D92E21E0C50129830E94FF07809381
:1027B0006103809161038150109260039FEF298132
:1027C00030916003381768F430916003F501E30F2E
:1027D000F11D30819327309160033F5F3093600398
:1027E000EFCFF501E80FF11D9083F89480915F031E
:1027F000813059F480915E03811738F010925F03A5
:10280000809173008D7F80937300789480915F0333
:10281000813031F480915E03843128F220E0C3CF0F
:1028200080915F03811164C0F894809173008F7D63
:1028300080937300D59B07C0809173008062809362
:102840007300789455C0E0915C03F0915D03308192
:10285000C70100905B0302C0880F991F0A94E2F73A
:10286000832B808380912401909125018A5A9C4F6B
:1028700090935A03809359038091590390915A037E
:1028800090932901809328017894B0925803A092E4
:1028900057031092600310925603F50180818093D4
:1028A0005503D0925F0310925E03D19A809173001A
:1028B00082608093730080915F038330E1F38091A5
:1028C0005603882371F0E0915303F0915403E757C6
:1028D000FF4F8081918101969183808383E090E016
:1028E00021C080915F03823031F085E090E005C027
:1028F00082E090E002C084E090E0029711F42111A0
:1029000051CF1B3108F01150015009F04BCF80918D
:10291000ED039091EE0301969093EE038093ED0307
:1029200086E090E00F90DF91CF911F910F91FF9083
:10293000EF90DF90BF90AF900895CF93DF93CDB726
:10294000DEB760970FB6F894DEBF0FBECDBF8983A8
:102950006A834B83CE0101960E94BE1360960FB628
:10296000F894DEBF0FBECDBFDF91CF910895FF92E7
:102970000F931F93CF93DF939091FE03611102C0D9
:102980009817C1F0F62EC82F082F09278093FE0351
:10299000D5E011E0F11003C0812F802339F0412FE1
:1029A0004C236D2F8091FF030E945007110FDF5FB2
:1029B000D93081F7DF91CF911F910F91FF9008954A
:1029C000FF920F931F93CF93DF93D091FD0361117B
:1029D00002C0D817B1F1162FC82FD8278093FD0356
:1029E00001E0FF24F394111103C08F2D8D2339F0E2
:1029F0004F2D4C23602F8091FF030E945007FF0C46
:102A00000F5F053081F7111102C0D4FF18C04C2FA1
:102A1000407160E08091FF030E945007112379F01C
:102A20004C2F40726091F1037091F2038091FF038B
:102A3000DF91CF911F910F91FF900C940507D5FD69
:102A4000EFCFDF91CF911F910F91FF90089561110A
:102A500004C09091FA03981799F08093FA038823A1
:102A600021F0813021F0482F03C041E001C040E057
:102A70006091F1037091F2038091FF030C942E0793
:102A80000895CF93DF93BC0180E090E04AE00E947C
:102A9000D212EC010E94CE128C0F9D1FDF91CF91BC
:102AA0000895E1EFF3E0908787836081718126814B
:102AB000AC0186850C94C404CF93DF930E94BC12B2
:102AC000EC010E94CE128C0F9D1FDF91CF910895D3
:102AD000382F2091520390915103213208F049C0C0
:102AE00080912E038111FCCF42E040932E0330935E
:102AF0002D033FEF30932C0310922B0320932A03D6
:102B0000A1E3B3E04AE053E0FA013E2F341B321751
:102B100018F43D913193F9CF1092090320910903E4
:102B2000990F922B9093090390910803913061F4CF
:102B300010920803909109039093BB009091BC0000
:102B400093FDF8CF95EC01C095EE9093BC00909169
:102B50002E039230E1F390912C039F3F79F0809106
:102B60002C03803241F080912C03803331F084E0DB
:102B700005C081E003C082E001C083E01092300311
:102B80001092520310922F0308951F93CF93DF9357
:102B90001F92CDB7DEB7152FFC01808191E0909395
:102BA0002F03809351031092300310925203F4E0EC
:102BB0006F9FB00111246A5F7F4F82EA94E04983DE
:102BC0000E94CB0E80E090E00E94B71280E090E07F
:102BD0000E94B7124981842F912F0E94B712812F32
:102BE00090E00E94B71281E00F90DF91CF911F918A
:102BF0000C9468151F93CF93DF93282F30E0F901D1
:102C0000E058F84F8491F901E65CF84FD491F9014E
:102C1000EC50F94FC491CC23C9F0162F81110E94BA
:102C20005516EC2FF0E0EE0FFF1FE652F94FA5917D
:102C3000B4918FB7F894111105C09C91ED2FE095D8
:102C4000E92302C0EC91ED2BEC938FBFDF91CF9184
:102C50001F910895CF92DF92EF92FF920F931F93EF
:102C6000CF93DF936C017A018B01C0E0D0E0CE15E9
:102C7000DF0589F0D8016D918D01D601ED91FC91B0
:102C80000190F081E02DC6011995892B11F47E0188
:102C900002C02196ECCFC701DF91CF911F910F9118
:102CA000FF90EF90DF90CF90089590E0FC01319776
:102CB000E231F10508F04EC08827EE58FF4F8F4FE4
:102CC0000C943F1E809180008F7703C0809180001C
:102CD0008F7D80938000089580918000877FF9CF59
:102CE00084B58F7702C084B58F7D84BD08958091AF
:102CF000B0008F7703C08091B0008F7D8093B000CB
:102D00000895809190008F7707C0809190008F7D0B
:102D100003C080919000877F8093900008958091F8
:102D2000A0008F7707C08091A0008F7D03C08091A5
:102D3000A000877F8093A0000895809120018F7765
:102D400007C0809120018F7D03C080912001877F83
:102D50008093200108953FB7F8948091B304909137
:102D6000B404A091B504B091B60426B5A89B05C0E3
:102D70002F3F19F00196A11DB11D3FBFBA2FA92FFA
:102D8000982F8827820F911DA11DB11DBC01CD0177
:102D900042E0660F771F881F991F4A95D1F7089563
:102DA0002FB7F8946091AF047091B0048091B10492
:102DB0009091B2042FBF08951F920F920FB60F92F9
:102DC00011242F933F938F939F93AF93BF93809141
:102DD000AF049091B004A091B104B091B2043091CD
:102DE000AE0423E0230F2D3720F40196A11DB11D61
:102DF00005C026E8230F0296A11DB11D2093AE0445
:102E00008093AF049093B004A093B104B093B20444
:102E10008091B3049091B404A091B504B091B6042C
:102E20000196A11DB11D8093B3049093B404A093A7
:102E3000B504B093B604BF91AF919F918F913F912C
:102E40002F910F900FBE0F901F901895789484B516
:102E5000826084BD84B5816084BD85B5826085BD96
:102E600085B5816085BD80916E00816080936E0024
:102E70001092810080918100826080938100809116
:102E800081008160809381008091800081608093C7
:102E900080008091B10084608093B1008091B00087
:102EA00081608093B0008091910082608093910056
:102EB0008091910081608093910080919000816069
:102EC000809390008091A10082608093A100809106
:102ED000A10081608093A1008091A0008160809317
:102EE000A0008091210182608093210180912101C5
:102EF0008160809321018091200181608093200175
:102F000080917A00846080937A0080917A00826058
:102F100080937A0080917A00816080937A0080911A
:102F20007A00806880937A001092C100E0911504C5
:102F3000F091160482E08083E0911104F091120474
:102F40001082E0911304F09114048FEC80831092AE
:102F50001D04E0911904F0911A0486E08083E09149
:102F60001704F0911804808180618083E091170438
:102F7000F0911804808188608083E0911704F091BB
:102F80001804808180688083E0911704F091180410
:102F900080818F7D808382EB96E00E944D130E949A
:102FA0000C080E941E1389E796E00E946E1384E4C9
:102FB00096E00E946E1386E396E00E944D130E94F5
:102FC0000C080E941E1381E090E00E94EF1B7C0120
:102FD00080E4D7018C93109299021092980210927B
:102FE00030031092520310922E03C1E0C0932D03C0
:102FF0001092080361E084E10E94FA1561E085E126
:103000000E94FA158091B9008E7F8093B90080915B
:10301000B9008D7F8093B90088E48093B80085E47F
:103020008093BC0040E060E0C7010E943F08F701C8
:103030008081C0932F03809351031092300310922C
:10304000520360E082EA94E00E94CB0E81E00E948D
:103050006815D7018C9190912E039111FCCF91E0CE
:1030600090932E0390932D032FEF20932C03109217
:103070002B0310922A039093090390910903880F60
:10308000892B8093090380910803813061F41092A9
:103090000803809109038093BB008091BC0083FDED
:1030A000F8CF85EC01C085EE8093BC0080912E03A3
:1030B0008130E1F380912B03811103C080912B03B8
:1030C00001C081E0AAE0B3E02AE932E0F9019E2FD5
:1030D000921B981718F49D919193F9CF1092990231
:1030E0008093980282EA94E00E947F0EC82F482FB6
:1030F0004F76406160E0C7010E943F0840E76EEFF5
:10310000C7010E943F084C2F60E0C7010E943F08A2
:103110000E94AB162B013C0175E0872E912CA12C4F
:10312000B12C0E94AB16DC01CB0184199509A609CC
:10313000B709883E9340A105B10558F0B1E08B1A5C
:103140009108A108B108E8EE4E0EE3E05E1E611C96
:10315000711C81149104A104B10419F74C2F416A28
:1031600060E0C7010E943F0889E090E00E94EF1BE9
:103170006C01970140E050E060E00E94600886E248
:1031800096E00E946E138AE090E00E94EF1BEC0133
:1031900066E1A62E62E0B62EB982A8821D821C824C
:1031A0001F821E821986188689E594E00E946E139C
:1031B00082E196E00E946E1384E096E00E944D1337
:1031C0000E940C080E941E1301E010E020E030E095
:1031D00044E650E0B601CE010E94E30C83EF95E097
:1031E0000E946E1385EE95E00E944D130E940C081C
:1031F0000E941E1348EE53E060E070E0CE010E9492
:10320000A80C82ED95E00E946E1384EC95E00E947C
:103210004D130E940C080E941E1302E010E020E0F3
:1032200030E048EC50E0B601CE010E94E30C86E4A9
:1032300092E00E945C1586EB95E00E944D130E947F
:103240000C080E941E1340ED57E060E070E0CE01D4
:103250000E94A80C83EA95E00E946E1385E995E030
:103260000E944D130E940C080E941E1382E595E0F7
:103270000E946E1389E090E00E94EF1B6C019701A1
:1032800040E050E061E00E9460088AE090E00E9427
:10329000EF1B7C01DC011196BC92AE9215961C923C
:1032A0001E92149717961C921E92169719961C92AE
:1032B0001E92189789E594E00E946E130AE010E0D0
:1032C00020E030E04CE251E0B601C7010E94E30C7F
:1032D0000AE010E020E030E040E050E0B601C70135
:1032E0000E94E30C88E090E00E94EF1B8C018EE1CD
:1032F00092E0F801918380831582148217821682EE
:103300008AE794E00E946E13D8011496CD90DC9069
:103310001597C114D10489F485E090E00E94EF1B59
:10332000FC01D183C08381E0828314821382D8019F
:103330001596FC93EE93149717C0F6018381948140
:10334000009711F06C01F9CF85E090E00E94EF1B2F
:10335000FC01D183C08381E0828314821382D60171
:103360001496FC93EE9313978DE894E00E946E13ED
:10337000F801C680D780C114D10489F485E090E0BB
:103380000E94EF1BFC01F182E08281E082831482C3
:103390001382D8011796FC93EE93169717C0F60187
:1033A00083819481009711F06C01F9CF85E090E062
:1033B0000E94EF1BFC01F182E08281E08283148293
:1033C0001382D6011496FC93EE9313978DE894E044
:1033D0000E946E1387E592E00E945C1589E090E000
:1033E0000E94EF1B6C018FE8E2E6F3E0DF011D9223
:1033F0008A95E9F7E8E6F7E04491E2E2F7E0249104
:103400002223A1F030E0220F331FF901E255FB4FD8
:10341000A591B491F901E652F94F859194918FB736
:10342000F8949C91E92FE42BEC938FBFE8E6F7E04A
:103430002491E2E2F7E0E491F0E0EE0FFF1FE652A4
:10344000F94F4591549180E091E031E0291741F026
:103450008F5F932F082E01C0990F0A94EAF7F6CFD9
:1034600050935D0340935C0380935B0382E693E09B
:10347000909354038093530380910A018D7F80932E
:103480000A01E0915C03F0915D03208181E090E00E
:1034900000905B0302C0880F991F0A94E2F78095A1
:1034A000822380831092200181E080932101109279
:1034B0005F03D59A8091730080628093730080913E
:1034C0002101887F8160809321011092F203109284
:1034D000F1038AE293E29093F6038093F50310924E
:1034E000FB031092FF03109200048DE792E00E940C
:1034F0005C158091F1039091F203892B79F48AE2B3
:1035000093E20E94511561E087E090E00E947A13F7
:103510004AE266E48FEB0E949D1404C088EC94E0BC
:103520000E946E13C6010E941609C6010E94160968
:103530008091F1039091F203892BE9F485E095E005
:103540000E946E138091F1039091F203892B79F41C
:103550008AE293E20E94511561E082E090E00E94CD
:103560007A134AE266E48FEB0E949D1404C088EC53
:1035700094E00E946E13C6010E9416098AEE94E040
:103580000E946E1382E190E00E94EF1B9093BB02B9
:103590008093BA0280E090E0E091BA02F091BB0221
:1035A000E80FF91F11821082029682319105A1F76E
:1035B000F601118210821282138214821582168201
:1035C00083ED94E00E946E13D092C002C092BF02BD
:1035D00020E040E0BE01C6010E94A20821E041E0D7
:1035E000B7018091BF029091C0020E94A20820E022
:1035F00042E0B8018091BF029091C0020E94A208EF
:103600008BE495E00E946E1389E295E00E946E13B0
:103610008BE195E00E944D130E940C080E941E133E
:1036200001E066246394712CC090BF02D090C00268
:10363000C6010E9416098091BE02811180C0F60168
:1036400082818823E1F083809480A580B6800E94E7
:10365000D01686169706A806B90608F070C00E9414
:10366000D016D60112962C91DC01CB01820F911D50
:10367000A11DB11DF60183839483A583B683C091F8
:10368000BC02D091BD02209721F4D601ED90FC90B0
:1036900043C08C81882341F188819981DC01ED91BF
:1036A000FC910190F081E02D19958C8381111CC053
:1036B0009A81953068F4992339F09150862D01C094
:1036C000880F9A95EAF701C080E19091FD030AC046
:1036D0009550F30102C0EE0FFF1F9A95E2F7CF015C
:1036E0009091FE03892371F50D80DE81C02DCBCF33
:1036F000D7012C9130E0F901E058F84F8491F9019D
:10370000E65CF84FD490F901EC50F94F1491111187
:1037100007C0F701E280F380E114F10449F70FC01C
:1037200081110E945516E12FF0E0EE0FFF1FE054CB
:10373000F94FA591B491EC91ED2159F305C00E9488
:10374000040E72CF0C83D0CFD70111968C912091AB
:10375000BA029091BB02E22FF92FE80FF11DE80F9A
:10376000F11D0190F081E02D0483D3CFE5E0F4E07A
:103770001382128288EE93E0A0E0B0E08483958308
:10378000A683B78326E232E03183208325EC30E044
:103790003587248724EC30E03787268720EC30E01B
:1037A000318B208B21EC30E0338B228B22EC30E00C
:1037B000358B248B26EC30E0378B268B118E128EC6
:1037C000138E148EE2EAF4E01382128284839583CE
:1037D000A683B78388E392E0918380830895CF9393
:1037E000DF938230910510F482E090E0E091B9041B
:1037F000F091BA0420E030E0C0E0D0E0309711F161
:103800004081518148175907C0F04817590761F4A2
:1038100082819381209719F09B838A832BC0909398
:10382000BA048093B90426C02115310519F0421756
:10383000530718F49A01BE01DF01EF010280F38102
:10384000E02DDCCF2115310509F1281B390B24307F
:10385000310590F412968D919C9113976115710525
:1038600021F0FB019383828304C09093BA04809378
:10387000B904FD01329644C0FD01E20FF31F8193AC
:103880009193225031092D933C933AC02091B70473
:103890003091B804232B41F42091020230910302AD
:1038A0003093B8042093B7042091000230910102B4
:1038B0002115310541F42DB73EB7409104025091D6
:1038C0000502241B350BE091B704F091B804E21710
:1038D000F307A0F42E1B3F0B2817390778F0AC0133
:1038E0004E5F5F4F2417350748F04E0F5F1F509310
:1038F000B8044093B7048193919302C0E0E0F0E0F4
:10390000CF01DF91CF9108950F931F93CF93DF9352
:10391000009709F48CC0FC01329713821282009147
:10392000B9041091BA040115110581F42081318187
:10393000820F931F2091B7043091B80428173907DC
:1039400079F5F093B804E093B70471C0D80140E072
:1039500050E0AE17BF0750F412962D913C9113978B
:10396000AD012115310509F1D901F3CF9D01DA012E
:103970003383228360817181860F971F821793079B
:1039800069F4EC0128813981260F371F2E5F3F4FE4
:10399000318320838A819B8193838283452B29F401
:1039A000F093BA04E093B90442C01396FC93EE93EB
:1039B0001297ED01499159919E01240F351FE2178D
:1039C000F30771F480819181840F951F02961196FF
:1039D0009C938E938281938113969C938E931297DE
:1039E000E0E0F0E0D80112968D919C91139700973A
:1039F00019F0F8018C01F6CF8D919C9198012E5F02
:103A00003F4F820F931F2091B7043091B8042817BD
:103A1000390769F4309729F41092BA041092B90466
:103A200002C0138212821093B8040093B704DF918E
:103A3000CF911F910F9108950E94EA1D90F09F373A
:103A400048F4911116F40C94031E60E070E080E8D5
:103A50009FE3089526F01B16611D711D811D0C94B6
:103A60009F1D0C94BA1D0E94D01D88F09F5798F09E
:103A7000B92F9927B751B0F0E1F0660F771F881F73
:103A8000991F1AF0BA95C9F714C0B13091F00E948D
:103A9000021EB1E008950C94021E672F782F88272C
:103AA000B85F39F0B93FCCF3869577956795B395B4
:103AB000D9F73EF490958095709561957F4F8F4F23
:103AC0009F4F0895E89409C097FB3EF49095809528
:103AD000709561957F4F8F4F9F4F9923A9F0F92FD4
:103AE00096E9BB279395F695879577956795B79552
:103AF000F111F8CFFAF4BB0F11F460FF1BC06F5F38
:103B00007F4F8F4F9F4F16C0882311F096E911C049
:103B1000772321F09EE8872F762F05C0662371F06A
:103B200096E8862F70E060E02AF09A95660F771F7E
:103B3000881FDAF7880F9695879597F90895882357
:103B400071F4772321F09850872B762F07C06623D6
:103B500011F499270DC09051862B70E060E02AF097
:103B60009A95660F771F881FDAF7880F96958795C5
:103B700097F908959F3F31F0915020F487957795FC
:103B80006795B795880F911D9695879597F9089534
:103B900057FD9058440F551F59F05F3F71F04795FE
:103BA000880F97FB991F61F09F3F79F087950895E3
:103BB000121613061406551FF2CF4695F1DF08C002
:103BC000161617061806991FF1CF8695710561051F
:103BD000089408950E94D01DA0F0BEE7B91788F49C
:103BE000BB279F3860F41616B11D672F782F8827E2
:103BF000985FF7CF869577956795B11D9395963920
:103C0000C8F30895E894BB2766277727CB0197F977
:103C10000895AA1BBB1B51E107C0AA1FBB1FA61713
:103C2000B70710F0A61BB70B881F991F5A95A9F765
:103C300080959095BC01CD010895A1E21A2EAA1B92
:103C4000BB1BFD010DC0AA1FBB1FEE1FFF1FA2174C
:103C5000B307E407F50720F0A21BB30BE40BF50B49
:103C6000661F771F881F991F1A9469F760957095D2
:103C7000809590959B01AC01BD01CF010895EE0F99
:103C8000FF1F881F8BBF0790F691E02D199481E0EC
:103C900090E0F8940C94671E6817790768F4FB01AC
:103CA000DC01E40FF51FA40FB51F02C002900E92B5
:103CB00041505040D8F708950C945E1EFB01DC0182
:103CC00002C001900D9241505040D8F70895F894E9
:023CD000FFCF24
:103CD2000000BB04800000000000D00400000000CF
:103CE20076040000000051041A05000000003C05A3
:103CF200210400000000570F2A16C70D9E0FF80D71
:103D0200D60DEA0D00000000CB0E9B0EFB0E6F0ECF
:103D1200930E7F0E700E50574D204576656E7420BF
:103D220061646465640A004372656174696E672048
:103D3200616E6420696E697469616C697A696E6723
:103D420020636F6E74726F6C6C65722E00204C4E25
:103D5200493A20537465616C696E672041646472EC
:083D6200657373000D0A0000F7
:00000001FF
