:100000000C946E010C949F010C949F010C949F0121
:100010000C949F010C949F010C949F010C949F01E0
:100020000C949F010C949F010C949F010C949F01D0
:100030000C949F010C949F010C949F010C949F01C0
:100040000C949F010C949F010C949F010C949F01B0
:100050000C949F010C949F010C949F010C94440DEF
:100060000C949F010C94B80D0C948E0D0C949F0170
:100070000C949F010C949F010C949F010C949F0180
:100080000C949F010C949F010C949F010C949F0170
:100090000C949F010C949F010C949F010C94D1022D
:1000A0000C949F010C949F010C949F010C949F0150
:1000B0000C949F010C949F010C9403040C9446042F
:1000C0000C949F010C949F010C949F010C949F0130
:1000D0000C949F010C949F010C949F010C949F0120
:1000E0000C949F010C94230B0C94740A0C94D7016C
:1000F0000C94490A0C94F6010C94DC0A0C94E1016E
:100100000C94D4010C94970A0C94D3010C94A50A76
:100110000C94DA010C94EE0D0C94830A0C940802F2
:1001200052583A200000002100240027002A002D08
:10013000003000330001010000040107010A010042
:10014000002200250028002B002E00310034000280
:10015000010000050108010B01050505050705085B
:10016000080808020202020A0A080804040404013A
:10017000010101010101010303030303030303045C
:100180000707070C0C0C0C0C0C0C0C0202020206EC
:10019000060606060606060B0B0B0B0B0B0B0B01DC
:1001A0000210202008081020401020408002010288
:1001B0000108040201010204081020408080402050
:1001C000100804020180040201804020100804028B
:1001D0000108040201010204081020408001020409
:1001E0000810204080496E697469616C697A6564A1
:1001F000206172726179732E004C4E3A20496E690B
:100200007469616C697A6564204C4E207061727407
:100210002E004C4E3A2053657474696E6720416419
:1002200064726573730046726565204D656D6F720B
:10023000793A20002D2D2D2D2D2D2D2D2D2D2D53A9
:100240004554555020454E4445442D2D2D2D2D2DE2
:100250002D2D2D2D2D00706F7461746F002D2D2D9F
:100260002D2D2D2D2D2D2D2D2D2D2D2D2D2D46458D
:100270004152204D592057524154482121212D2DC2
:100280002D2D2D2D2D2D2D2D2D2D2D2D2D2D2D2D9E
:100290002D002D2D2D2D2D2D2D2D2D2D2D2D2D499F
:1002A00020414D20544845204D4947485459205439
:1002B000524F47444F522121212D2D2D2D2D2D2DD3
:1002C0002D2D2D2D2D2D2D2D2D2D004672656520CA
:1002D0004D656D6F72793A200000EE0D11241FBE3E
:1002E000CFEFD1E2DEBFCDBF00E00CBF12E0A0E057
:1002F000B2E0E4ECF3E200E00BBF02C007900D9225
:10030000A836B107D9F724E0A8E6B2E001C01D92F3
:10031000AD32B207E1F711E0CEE6D1E000E006C071
:1003200021970109802FFE010E94B811CD36D10717
:1003300080E00807A9F70E94270E0C94E0110C94A6
:10034000000085ED8093BC008091BC0084FDFCCF53
:100350001092B102089540918B02262F30E0240FB5
:10036000311D21323105DCF42091B1022430C9F471
:10037000FC0180E090E0861758F430918B022191C7
:10038000DC01A759BD4FA30FB11D2C930196F3CFEC
:1003900080918B02680F60938B0280E0089581E06A
:1003A000089582E0089508958FEF9FEF08958FEFED
:1003B0009FEF08958091680290E091958195910951
:1003C0000895CF93DF931F921F92CDB7DEB7CB0175
:1003D000642F49835A830E94AB014981842F5A813B
:1003E000952F0F900F90DF91CF910895CF93DF93CA
:1003F0001F92CDB7DEB7698361E0CE0101960E94FE
:10040000AB0181E090E00F90DF91CF9108950895C6
:1004100080E090E00895AF92BF92DF92EF92FF925A
:100420000F931F93CF93DF93FC012585411102C0E9
:10043000261709F1D42EC62F8C01E62EE226FC01E8
:100440006587FF24F394D5E080E0A82E80E0B82EE5
:10045000A114B10461F0D11003C08F2D8E2139F0A9
:100460004F2D4C236D2FF80186850E940000FF0C54
:10047000DF5FD93069F7DF91CF911F910F91FF9026
:10048000EF90DF90BF90AF900895AF92BF92CF9260
:10049000DF92EF92FF920F931F93CF93DF931F9200
:1004A000CDB7DEB7FC01B484411103C0B61609F420
:1004B00050C0F42EA62E8C01B626FC016487EE24D3
:1004C000E39491E080E0C82E80E0D82EC114D104DE
:1004D00071F0F11003C08E2D8B2149F04E2D4A2171
:1004E000692FF801868599830E9400009981EE0C9E
:1004F0009F5F953059F780E090E0892B59F0F1101B
:1005000002C0B4FE20C04A2D407160E0F80186852B
:100510000E94000080E090E0892BD9F0FF20B9F024
:100520004A2D4072F8016081718186850F90DF91BC
:10053000CF911F910F91FF90EF90DF90CF90BF90E0
:10054000AF900C94000080E090E0892B11F0B5FC96
:10055000E7CF0F90DF91CF911F910F91FF90EF9018
:10056000DF90CF90BF90AF900895FC01411103C080
:100570008185861799F0618780E090E0892B71F082
:10058000662321F0613021F0462F03C041E001C015
:1005900040E06081718186850C94000008950E947E
:1005A000C0111F920F920FB60F9211240BB60F922B
:1005B0002F933F934F935F936F937F938F939F936B
:1005C000AF93BF93EF93FF938091B900887F8036FC
:1005D00009F49CC068F5883209F45BC090F480315E
:1005E00009F454C038F4882309F4F6C0883009F4BB
:1005F0004DC0F6C0883109F44CC0803209F45DC0AA
:10060000EFC0803409F468C048F4803309F455C061
:10061000883309F0E5C08093B002D8C0803509F472
:100620004FC0883509F45DC0883409F0D9C0D6C000
:10063000883909F4C7C0A8F4883709F467C038F4CA
:10064000883609F463C0803709F460C0C9C08838AF
:1006500009F4B8C0803909F45FC0803809F0C0C01F
:100660005BC0803B09F486C038F4803A09F466C068
:10067000883A09F47FC0B4C0803C09F4A7C0883C24
:1006800009F4A4C0883B09F48AC0AAC08091D602AC
:1006900010C09091D5028091D402981770F5E09126
:1006A000D50281E08E0F8093D502F0E0EC54FD4F2F
:1006B00080818093BB0085EC86C08093B0028EC0A1
:1006C000E091D50281E08E0F8093D5028091BB002E
:1006D000F0E0EC54FD4F80839091D5028091D402DC
:1006E0006EC0E091D50281E08E0F8093D50280919B
:1006F000BB00F0E0EC54FD4F80838091B302811188
:100700006DC081E08093B20284EA61C083E080938F
:10071000B1021092AF02CFCF8091AF02803208F0C9
:1007200051C0E091AF0281E08E0F8093AF028091C3
:10073000BB00F0E0E157FD4F8083BDCF85EC809397
:10074000BC001092B1028091AF02803230F4E0918F
:10075000AF02F0E0E157FD4F10826091AF0270E010
:10076000E0918D02F0918E028FE892E0199510923F
:10077000AF0236C084E08093B10210928C021092D6
:100780008B02E0918902F0918A02199580918B0287
:10079000811105C081E080938B0210926902E09183
:1007A0008C0281E08E0F80938C02F0E0E759FD4FC0
:1007B00080818093BB0090918C0280918B0298176E
:1007C00008F479CF85E88093BC000AC085EC80935B
:1007D000BC001092B10204C01092B0020E94A101AC
:1007E000FF91EF91BF91AF919F918F917F916F9109
:1007F0005F914F913F912F910F900BBE0F900FBEC5
:100800000F901F9018951F920F920FB60F92112400
:100810000BB60F928F939F93EF93FF93E3E7F0E074
:1008200080818F7D80838091260190912701805661
:100830009A4F9093DE028093DD028091DD029091C9
:10084000DE029093290180932801D19A80818260F1
:10085000808384E08093E3021092E202FF91EF91A3
:100860009F918F910F900BBE0F900FBE0F901F9016
:100870001895FC0180818076803611F4818108957D
:100880008081807682958F708E5F08951F920F927F
:100890000FB60F9211240BB60F920F931F932F9345
:1008A0003F934F935F936F937F938F939F93AF93F8
:1008B000BF93CF93DF93EF93FF938091DD029091ED
:1008C000DE0280549C4F9093DE028093DD02809183
:1008D000DD029091DE02909329018093280180919E
:1008E000E2028F5F8093E2028091E302843009F09C
:1008F00040C08091E202893088F48091D90290E072
:10090000959587958093D9028091090181FF36C121
:100910008091D90280688093D90230C1D59A8091A4
:100920007300806280937300209109018091D70247
:100930009091D80221FD09C0FC01E957FF4F808149
:1009400091810196918380830FC04091D902FC016F
:10095000E058FF4F308121E0230F2083DC01A30FFB
:10096000B11D4C9327FD10821092E20281E080932A
:10097000E3028091E302833009F0AAC0E091E00233
:10098000F091E10240812091DF029091090150E055
:10099000022E02C0559547950A94E2F7892F90E000
:1009A000959587958427952780FD04C01092E202D3
:1009B00082E08CC08091E2028930F0F48091D9020B
:1009C000308180FF09C081E090E001C0880F2A9546
:1009D000EAF78095832307C081E090E001C0880F8B
:1009E0002A95EAF7832B80838091D90290E0959530
:1009F00087958093D9026CC08091E202893059F4C6
:100A0000308181E090E001C0880F2A95EAF7809557
:100A1000832380835DC08091E4028F5F8093E40232
:100A20009091E502891748F51092E202A091DB024D
:100A3000B091DC028091E402A80FB11D8C918093EB
:100A4000D902308181E090E001C0880F2A95EAF751
:100A5000832B808380912401909125018A5A9C4F99
:100A60009093DE028093DD028091DD029091DE02A0
:100A700090932901809328012BC081E08093DA02B2
:100A8000C091DB02D091DC020091D7021091D80214
:100A9000CE010E94390420E030E0F801E058FF4F19
:100AA000281788F4DE01A20FB31F5C91408191E00A
:100AB000940F9083D801A40FB11D5C9397FD108211
:100AC0002F5F3F4FEDCF1092E20281E08093E3026F
:100AD0008091E3028230D1F58091E202811111C050
:100AE000E091E002F091E102208181E090E000904D
:100AF000DF0202C0880F991F0A94E2F7822B8083DD
:100B000025C08091E2028F3008F1E091E002F0917F
:100B1000E102208181E090E00090DF0202C0880FB6
:100B2000991F0A94E2F78095822380831092E20253
:100B300081E08093E302E091D702F091D802E3577D
:100B4000FF4F808191810196918380838091E302A0
:100B50008130A1F48091E202811105C0D59A809183
:100B60007300806209C08091E202883338F01092ED
:100B7000E302809173008D7F80937300FF91EF916A
:100B8000DF91CF91BF91AF919F918F917F916F91A5
:100B90005F914F913F912F911F910F910F900BBE3D
:100BA0000F900FBE0F901F901895CF93DF931F9259
:100BB0001F92CDB7DEB72091290430912A04CE01CF
:100BC00001962115310519F48D52944018C0AC01DD
:100BD000421B530BE0912B04F0912C0480E090E039
:100BE000309759F09C012E5F3F4F80819181820F99
:100BF000931F0280F381E02DF3CF840F951F9A831A
:100C0000898389819A810F900F90DF91CF91089508
:100C1000FC01CB0160817181411103C06817790724
:100C200051F09183808320E030E0232B21F0AC0150
:100C300086850C9400000895FF920F931F93CF9325
:100C4000DF931F92CDB7DEB7411104C0FC012385AD
:100C50002617F9F0F62E8C01FC01638780E090E006
:100C6000892B29F0868549830E94000049818F2DB8
:100C70008073803319F060E070E002C068E070E0DB
:100C8000C8010F90DF91CF911F910F91FF900C94AD
:100C900008060F90DF91CF911F910F91FF9008955B
:100CA000AF92BF92CF92DF92EF92FF920F931F937A
:100CB000CF93DF937C01C0E8DFEF809167039091D1
:100CC0006603891709F4A2C0E82FF0E0EA51FD4F4E
:100CD000108117FF20C090916803981751F0209160
:100CE0006D0330916E032F5F3F4F30936E0320935F
:100CF0006D0380936803D0936903812F80768036DB
:100D000021F082958F708E5F01C080E080936A032E
:100D1000811107C044C080916A03811140C01093C3
:100D20006A032091680380916A0390E0820F911D0D
:100D300081389105A4F1CC2EC21AF89480916603F3
:100D400090916703981708F0BAC190916803282F13
:100D5000291B922F909366037894909167038917CB
:100D600008F0B0C1D12C482F50E066EE72E0C60109
:100D70008A519D4F0E94C5116091680370E06A51CD
:100D80007D4FA60186EE92E00E94C5118091670317
:100D900090916803891B8093670310926803909178
:100DA00067039F5F9093670380916803392F381B17
:100DB00097FD1092670390916A032091690339139C
:100DC00021C021130EC090E08A519D4F40916B03CA
:100DD00050916C034F5F5F4F50936C0340936B03D4
:100DE0000BC080916D0390916E03019690936E03FA
:100DF00080936D0380E090E0309167033093680347
:100E0000009731F412271093690357CF80E090E0E8
:100E1000D70117969C938E931697892B09F42EC3AE
:100E200080E291E00E94150DF701868197810E9472
:100E30003904182FC0E0D0E0D7011696ED91FC914F
:100E40001797C117A0F4EC0FFD1F0081003118F4B3
:100E500080E30E94980C602F70E080E090E040E119
:100E60000E94A30C80E20E94980C2196E5CF21817C
:100E70006281762F7F7030E8739FA0011124422B8E
:100E80009081923BF1F0DA011196913B09F464C034
:100E900048F4933899F1903B09F449C0923809F02D
:100EA0001AC133C09C3B09F483C020F4943B09F47D
:100EB00003C111C19D3B09F4E1C2903D09F48DC00D
:100EC0000AC165FD03C081E090E002C082E090E0CD
:100ED00020E030E0232B09F4D1C2440F551F60718C
:100EE000840F951FDF91CF911F910F91FF90EF908D
:100EF000DF90CF90BF90AF900C94000080E090E026
:100F0000892B09F4BBC281E006C080E090E0892B08
:100F100009F4B4C280E0DF91CF911F910F91FF904F
:100F2000EF90DF90CF90BF90AF900C94000080E0E6
:100F300090E0892B09F4A2C2462F40726071CD0166
:100F4000DF91CF911F910F91FF90EF90DF90CF90A5
:100F5000BF90AF900C94000066FF15C080E090E059
:100F6000892B09F48BC2462F40726071CD01DF914D
:100F7000CF911F910F91FF90EF90DF90CF90BF9096
:100F8000AF900C94000080E090E0892B09F476C2C9
:100F9000462F40716072CD01DF91CF911F910F916B
:100FA000FF90EF90DF90CF90BF90AF900C94000037
:100FB00020E030E0232B09F461C2462F40726071BB
:100FC000CD01DF91CF911F910F91FF90EF90DF90B6
:100FD000CF90BF90AF900C940000822F807680322B
:100FE00019F1803619F0811149C21EC080E090E0ED
:100FF000892B09F443C21381812F807D803109F050
:101000003DC20481C1E0D1E041E08D2F812309F090
:1010100040E02D2F2023DD0F6C2F80E80E94000080
:10102000CF5FC53089F72AC280E090E0892B09F4B0
:1010300025C2822F8F71A0E88A9FC0011124860FDC
:10104000911D25FB222720F901963381448150E030
:101050003D3729F0B0E83B9F400D511D1124772307
:1010600081F0723081F0743081F0763081F0783028
:1010700081F07A3081F07C3081F07E3081F0672F12
:101080000FC061E40DC062E40BC063E409C064E416
:1010900007C065E405C066E403C067E401C068E416
:1010A000DF91CF911F910F91FF90EF90DF90CF9044
:1010B000BF90AF900C9400002C3369F4DFC19C2DDD
:1010C000980F48CE60916803482F461B50E070E0AF
:1010D0006A517D4F57CE8AE292E00E947E0BF70163
:1010E000C681D7818701085F1F4F8881873E09F03D
:1010F00041C18985CC80D12CE0E88E9FC00CD11CE9
:1011000011246A81D7011E962C911E971F96AD90CF
:10111000BC90509718968D919C911997261390C06A
:10112000AC14BD0409F06AC041E0069749F52C856E
:101130008B8590E0B0E82B9F800D911D1124F70165
:101140002485358528173907D9F060E070E0C8019B
:101150000E94080680E090E0892B09F48FC164E0CA
:1011600070E0D70156968C91DF91CF911F910F912E
:10117000FF90EF90DF90CF90BF90AF900C94000065
:1011800068E070E0C8010E940806B501C8010E942D
:10119000900B41E06D81C8010E94B50241E06E8173
:1011A000C8010E94450241E06A85C8010E940B0205
:1011B00041E06B81C8010E941C0641E068E070E0DC
:1011C000C8010E9408068FEE8883F70184858F7717
:1011D0008B8784859585880F892F881F990B91951A
:1011E0008C87CE01DF91CF911F910F91FF90EF90EF
:1011F000DF90CF90BF90AF900C949F0B049709F0B5
:101200003DC141E062E070E0C8010E940806D701DC
:101210001F966D917C915097462F4F77660F672FE1
:10122000661F770B71958FEBDF91CF911F910F9117
:10123000FF90EF90DF90CF90BF90AF900C947E0C1A
:10124000AC14BD0409F077C09C0122503109223052
:10125000310530F52B8126FD1BC020732033C1F0F2
:1012600041E0029751F464E070E0C8010E94080672
:101270008A81F70186874A8106C060E070E0C80174
:101280000E94080640E06A818AEB0E947E0C53C0EF
:1012900080E090E0892B09F448C061E070E033C041
:1012A00087309105B1F58B8186FD27C0807380332F
:1012B00021F5F701668741E068E070E0C8010E940F
:1012C0000806B601C8010E94900B41E06D81C8017B
:1012D0000E94B50241E06E81C8010E94450241E0D2
:1012E0006A85C8010E940B0241E06B81C8010E941F
:1012F0001C0641E068E070E01BC080E090E0892BB4
:10130000A1F064E070E0D70156968C910E94000035
:101310000CC0059781F4F70143894F7D85EB0E944E
:101320007E0C8FEFD7011E968C9341E060E070E059
:10133000C8010E940806F70180859185019709F090
:101340009DC08A81868741E068E070E0C8010E9404
:101350000806B601C8010E94900B41E06D81C801EA
:101360000E94B50241E06E81C8010E94450241E041
:101370006B8145C090E6980F933018F0853B09F0DB
:101380004BC0D7011E962C919981291377C0803AC2
:1013900079F440E06A81C801DF91CF911F910F91EC
:1013A000FF90EF90DF90CF90BF90AF900C94B5027C
:1013B000813A79F440E06A81C801DF91CF911F91B1
:1013C0000F91FF90EF90DF90CF90BF90AF900C9473
:1013D0004502823A79F440E06A81C801DF91CF91F9
:1013E0001F910F91FF90EF90DF90CF90BF90AF9043
:1013F0000C940B02853B09F041C040E06A81C801B2
:10140000DF91CF911F910F91FF90EF90DF90CF90E0
:10141000BF90AF900C941C06843B81F5F70180854A
:1014200091850197049750F589818A3349F480E0CA
:1014300090E0892B29F064E070E086890E9400002A
:1014400089818F3359F480E090E0892B39F065E091
:1014500070E0D70156968C910E94000041E060E058
:1014600070E0C801DF91CF911F910F91FF90EF9035
:10147000DF90CF90BF90AF900C940806DF91CF9192
:101480001F910F91FF90EF90DF90CF90BF90AF90A2
:101490000895CF92DF92EF92FF920F931F93CF9315
:1014A000DF936C017A018B01C0E0D0E0CE15DF053F
:1014B00089F0D8016D918D01D601ED91FC910190DB
:1014C000F081E02DC6011995892B11F47E0102C02F
:1014D0002196ECCFC701DF91CF911F910F91FF9023
:1014E000EF90DF90CF900895FC01538D448D252F10
:1014F00030E0842F90E0821B930B541710F0CF96AE
:10150000089501970895FC01918D828D981761F0DF
:10151000828DDF01A80FB11D5D968C91928D9F5F2A
:101520009F73928F90E008958FEF9FEF0895FC01D5
:10153000918D828D981731F0828DE80FF11D858D88
:1015400090E008958FEF9FEF0895FC01918D228D1B
:10155000892F90E0805C9F4F821B91098F739927A0
:10156000089585E793E00E94A50A21E0892B09F4FC
:1015700020E0822F0895FC01848DDF01A80FB11DAA
:10158000A35ABF4F2C91848D90E001968F739927B9
:10159000848FA689B7892C93A089B1898C918064A6
:1015A0008C93938D848D981306C00288F389E02D67
:1015B00080818F7D80830895EF92FF920F931F9318
:1015C000CF93DF93EC0181E0888F9B8D8C8D9813F6
:1015D00005C0E889F989808185FD24C0F62E0B8D30
:1015E00010E00F5F1F4F0F731127E02E8C8DE81254
:1015F0000CC00FB607FCFACFE889F989808185FF16
:10160000F5CFCE010E94BB0AF1CF8B8DFE01E80F12
:10161000F11DE35AFF4FF0820B8FEA89FB8980812D
:10162000806207C0EE89FF896083E889F98980813B
:101630008064808381E090E0DF91CF911F910F91D2
:10164000FF90EF900895CF93DF93EC01888D88236E
:10165000C9F0EA89FB89808185FD05C0A889B9891F
:101660008C9186FD0FC00FB607FCF5CF808185FFFA
:10167000F2CFA889B9898C9185FFEDCFCE010E9468
:10168000BB0AE7CFDF91CF91089580E090E0892BEE
:1016900021F00E94B10A811125C080E090E0892BE1
:1016A00041F080E090E0892B21F00E940000811140
:1016B0001CC080E090E0892B41F080E090E0892B15
:1016C00021F00E940000811113C080E090E0892B7E
:1016D000A1F080E090E0892B81F00E940000811150
:1016E0000AC008950E940000D8CF0E940000E1CFF8
:1016F0000E940000EACF0C9400000895009769F062
:10170000FC0101900020E9F73197AF01481B590B0C
:10171000BC0185E793E00C94490A80E090E00895CD
:10172000FC01AB017087678380E090E0892B31F08A
:1017300060817181268186850C9400000895AF92A6
:10174000BF92DF92EF92FF920F931F93CF93DF939D
:101750001F92CDB7DEB75C0109E11EE2EE24E394EF
:10176000F12C93E0D92E21E0C50129830E94390490
:101770008093E5028091E50281501092E4029FEF90
:1017800029813091E402381768F43091E402F501C0
:10179000E30FF11D308193273091E4023F5F3093D6
:1017A000E402EFCFF501E80FF11D9083F8948091EA
:1017B000E302813059F48091E202811738F01092EF
:1017C000E302809173008D7F809373007894809101
:1017D000E302813031F48091E202843128F220E08A
:1017E000C3CF8091E302811164C0F89480917300AB
:1017F0008F7D80937300D59B07C0809173008062BA
:1018000080937300789455C0E091E002F091E1027A
:101810003081C7010090DF0202C0880F991F0A942F
:10182000E2F7832B808380912401909125018A5ACD
:101830009C4F9093DE028093DD028091DD029091B7
:10184000DE0290932901809328017894B092DC0203
:10185000A092DB021092E4021092DA02F50180817C
:101860008093D902D092E3021092E202D19A809141
:1018700073008260809373008091E3028330E1F310
:101880008091DA02882371F0E091D702F091D802BA
:10189000E757FF4F8081918101969183808383E098
:1018A00090E021C08091E302823031F085E090E049
:1018B00005C082E090E002C084E090E0029711F45D
:1018C000211151CF1B3108F01150015009F04BCFBD
:1018D00080917103909172030196909372038093AB
:1018E000710386E090E00F90DF91CF911F910F91EF
:1018F000FF90EF90DF90BF90AF900895CF93DF936C
:10190000CDB7DEB760970FB6F894DEBF0FBECDBF80
:1019100089836A834B83CE0101960E949F0B609658
:101920000FB6F894DEBF0FBECDBFDF91CF91089503
:10193000E0917503F09176030190F081E02D682F1E
:1019400085E793E019948F929F92AF92BF920F9385
:101950001F93CF93DF93CDB7DEB7A1970FB6F8945F
:10196000DEBF0FBECDBF19A2423008F44AE08E019F
:101970000F5D1F4F842E912CA12CB12CA501940139
:101980000E949611E62FB901CA0101501109EA30EF
:1019900014F4E05D01C0E95CD801EC93232B242B07
:1019A000252B61F7C8010E947E0BA1960FB6F89413
:1019B000DEBF0FBECDBFDF91CF911F910F91BF90C2
:1019C000AF909F908F900895CF92DF92EF92FF9209
:1019D000CF93DF936C01990FEE08FF08F7FE12C05A
:1019E0008DE20E94980CEC0166277727CB016C19D9
:1019F0007D098E099F094AE00E94A30C7C01EC0E30
:101A0000FD1E06C04AE0C701B6010E94A30C7C017E
:101A10008AE292E00E947E0B8E0D9F1DDF91CF9196
:101A2000FF90EF90DF90CF9008950F931F93CF9387
:101A3000DF938C01C0E0D0E0F801EC0FFD1F649152
:101A4000662371F0E0917503F09176030190F081C7
:101A5000E02D85E793E01995892B11F02196ECCFC5
:101A6000CE01DF91CF911F910F910895CF93DF9316
:101A70000E94150DEC018AE292E00E947E0B8C0F11
:101A80009D1FDF91CF9108951F920F920FB60F9275
:101A900011242F933F938F939F93AF93BF93809184
:101AA000190490911A04A0911B04B0911C04309168
:101AB000180423E0230F2D3720F40196A11DB11D3A
:101AC00005C026E8230F0296A11DB11D209318041E
:101AD0008093190490931A04A0931B04B0931C04E0
:101AE0008091140490911504A0911604B0911704EC
:101AF0000196A11DB11D8093140490931504A09329
:101B00001604B0931704BF91AF919F918F913F91AD
:101B10002F910F900FBE0F901F9018951F920F924C
:101B20000FB60F9211240BB60F922F933F934F9342
:101B30005F936F937F938F939F93AF93BF93EF9335
:101B4000FF9385E793E00E94BB0AFF91EF91BF915D
:101B5000AF919F918F917F916F915F914F913F9145
:101B60002F910F900BBE0F900FBE0F901F901895E6
:101B70001F920F920FB60F9211240BB60F922F9354
:101B80008F939F93EF93FF93E0918503F0918603EA
:101B90008081E0918B03F0918C0382FD12C09081D3
:101BA00080918E038F5F8F7320918F03821751F086
:101BB000E0918E03F0E0EB58FC4F958F80938E03FD
:101BC00001C08081FF91EF919F918F912F910F9094
:101BD0000BBE0F900FBE0F901F901895E5E7F3E036
:101BE0001382128288EE93E0A0E0B0E084839583B4
:101BF000A683B7832AE032E03183208325EC30E0EE
:101C00003587248724EC30E03787268720EC30E0C6
:101C1000318B208B21EC30E0338B228B22EC30E0B7
:101C2000358B248B26EC30E0378B268B118E128E71
:101C3000138E148EEDE1F4E0138212828483958377
:101C4000A683B7838CE192E0918380830895789492
:101C500084B5826084BD84B5816084BD85B58260B1
:101C600085BD85B5816085BD80916E008160809362
:101C70006E001092810080918100826080938100CB
:101C800080918100816080938100809180008160DB
:101C9000809380008091B10084608093B100809136
:101CA000B00081608093B000809191008260809349
:101CB00091008091910081608093910080919000CB
:101CC0008160809390008091A10082608093A10048
:101CD0008091A10081608093A1008091A00081602B
:101CE0008093A000809121018260809321018091E6
:101CF0002101816080932101809120018160809386
:101D0000200180917A00846080937A0080917A002B
:101D1000826080937A0080917A00816080937A005B
:101D200080917A00806880937A001092C100E091DF
:101D30008503F091860382E08083E0918103F09136
:101D400082031082E0918303F09184038FEC8083FF
:101D500010928D03E0918903F0918A0386E08083DD
:101D6000E0918703F0918803808180618083E09116
:101D70008703F0918803808188608083E0918703E6
:101D8000F0918803808180688083E0918703F091DF
:101D9000880380818F7D80838BEC92E00E94150DFB
:101DA0000E94D5050E94E40C82E992E00E94360D63
:101DB0008DE592E00E94360D8DE292E00E947E0B4E
:101DC0008AE292E00E947E0B8CE190E00E94691012
:101DD000EC018FE8E6EEF2E0DF011D928A95E9F76B
:101DE000EDECF1E02491E7E8F1E08491882399F0AB
:101DF00090E0880F991FFC01EB5DFE4FA591B49117
:101E0000FC01E15CFE4F859194918FB7F894EC91C1
:101E1000E22BEC938FBFEDECF1E02491E7E8F1E0E9
:101E2000E491F0E0EE0FFF1FE15CFE4F459154910D
:101E300080E091E031E0291741F08F5F932F082E69
:101E400001C0990F0A94EAF7F6CF5093E10240934C
:101E5000E0028093DF0286EE92E09093D8028093B6
:101E6000D70280910A018D7F80930A01E091E00200
:101E7000F091E102208181E090E00090DF0202C059
:101E8000880F991F0A94E2F780958223808310922D
:101E9000200181E0809321011092E302D59A809184
:101EA000730080628093730080912101887F81603C
:101EB000809321018E01085F1F4F198618868AE2E0
:101EC00093E29D878C871A8A1E8A1F8A83E592E097
:101ED0000E947E0B8AE292E00E947E0B88859985A3
:101EE000892B89F46AE273E2C8010E94900B41E0F9
:101EF00067E070E0C8010E9408064AE266E48FEBE2
:101F00000E947E0C09C080E090E0892B29F062E0FD
:101F100070E08E890E940000CE010E945006CE0122
:101F20000E94500688859985892B11F582E192E0FF
:101F30000E94360D88859985892B89F46AE273E2BF
:101F4000C8010E94900B41E062E070E0C8010E946D
:101F500008064AE266E48FEB0E947E0C09C080E02E
:101F600090E0892B29F062E070E08E890E940000E9
:101F7000CE010E94500689EF91E00E94360D8AE35F
:101F800090E00E946910FC0111821082138212827B
:101F90001582148217821682118610861386128685
:101FA0001586148617861686118A108A138A128A55
:101FB000158A148A178A168A118E108E138E128E25
:101FC000158E148E178E168E11A210A213A212A2B5
:101FD00015A214A217A216A211A610A613A612A645
:101FE00015A614A617A616A611AA10AA13AA12AA15
:101FF00015AA14AA17AA16AA11AE10AE998388833F
:102000008DE190E00E946910FC0110821182128221
:102010001382148215821682178210861186128608
:1020200013861486158616861786108A118A128AD8
:10203000138A148A158A168A178A108E118E128EA8
:10204000138E148E9B838A838DE190E00E94691029
:10205000FC01108211821282138214821582168270
:1020600017821086118612861386148615861686A8
:102070001786108A118A128A138A148A158A168A78
:10208000178A108E118E128E138E148E9D838C8360
:1020900085EE91E00E94360DD0931304C093120494
:1020A00086E592E00E94360D84E392E00E94360DB0
:1020B00086E292E00E94150D0E94D5050E94E40C74
:1020C00080911204909113040E9450060E94450BC7
:1020D000F7CFCF93DF938230910510F482E090E048
:1020E000E0912B04F0912C0420E030E0C0E0D0E03F
:1020F000309711F14081518148175907C0F04817B6
:10210000590761F482819381209719F09B838A8318
:102110002BC090932C0480932B0426C021153105ED
:1021200019F04217530718F49A01BE01DF01EF01BD
:102130000280F381E02DDCCF2115310509F1281B48
:10214000390B2430310590F412968D919C911397A0
:102150006115710521F0FB019383828304C0909384
:102160002C0480932B04FD01329644C0FD01E20F44
:10217000F31F81939193225031092D933C933AC0E0
:102180002091290430912A04232B41F4209102024A
:102190003091030230932A042093290420910002F5
:1021A000309101022115310541F42DB73EB7409120
:1021B000040250910502241B350BE0912904F09193
:1021C0002A04E217F307A0F42E1B3F0B2817390748
:1021D00078F0AC014E5F5F4F2417350748F04E0F83
:1021E0005F1F50932A04409329048193919302C066
:1021F000E0E0F0E0CF01DF91CF9108950F931F93BE
:10220000CF93DF93009709F48CC0FC0132971382BF
:10221000128200912B0410912C040115110581F4F8
:1022200020813181820F931F2091290430912A044B
:102230002817390779F5F0932A04E093290471C02F
:10224000D80140E050E0AE17BF0750F412962D9130
:102250003C911397AD012115310509F1D901F3CF57
:102260009D01DA013383228360817181860F971F7C
:102270008217930769F4EC0128813981260F371FF3
:102280002E5F3F4F318320838A819B81938382839A
:10229000452B29F4F0932C04E0932B0442C01396B1
:1022A000FC93EE931297ED01499159919E01240FF1
:1022B000351FE217F30771F480819181840F951F18
:1022C000029611969C938E938281938113969C9390
:1022D0008E931297E0E0F0E0D80112968D919C91D8
:1022E0001397009719F0F8018C01F6CF8D919C910E
:1022F00098012E5F3F4F820F931F20912904309148
:102300002A042817390769F4309729F410922C040D
:1023100010922B0402C01382128210932A0400939D
:102320002904DF91CF911F910F910895A1E21A2EF8
:10233000AA1BBB1BFD010DC0AA1FBB1FEE1FFF1F69
:10234000A217B307E407F50720F0A21BB30BE40BB9
:10235000F50B661F771F881F991F1A9469F7609500
:102360007095809590959B01AC01BD01CF010895BA
:10237000EE0FFF1F881F8BBF0790F691E02D199479
:1023800081E090E0F8940C94E0116817790768F404
:10239000FB01DC01E40FF51FA40FB51F02C0029082
:1023A0000E9241505040D8F708950C94D711FB017C
:1023B000DC0102C001900D9241505040D8F70895C1
:0423C000F894FFCFBF
:1023C40000002D04800000000000DC0A490A740AA1
:1023D400230BA50A830A970A00000000F601E10115
:1023E4000802D301DA01D701D4010D0A0043726552
:1023F4006174696E6720616E6420696E69746961D5
:102404006C697A696E6720636F6E74726F6C6C6549
:10241400722E004C4E3A20537465616C696E6720CD
:082424004164647265737300EA
:00000001FF
