:100000000C94EE020C941F030C941F030C941F031A
:100010000C941F030C941F030C941F030C941F03D8
:100020000C941F030C941F030C941F030C941F03C8
:100030000C941F030C941F030C941F030C941F03B8
:100040000C941F030C941F030C941F030C941F03A8
:100050000C941F030C941F030C941F030C94CE14D8
:100060000C941F030C946E060C9444060C941F030E
:100070000C941F030C941F030C941F030C941F0378
:100080000C941F030C941F030C941F030C941F0368
:100090000C941F030C941F030C941F030C94A406D0
:1000A0000C941F030C941F030C941F030C941F0348
:1000B0000C941F030C941F030C94D6070C9419087E
:1000C0000C941F030C941F030C941F030C941F0328
:1000D0000C941F030C941F030C941F030C941F0318
:1000E0000C941F0313141614051409140F144D1443
:1000F0001A141E14241428142C14321436143A140E
:100100004D144014441448140C941E140C943A14C6
:100110000C945E040C9448140C9421030C94401429
:100120000C945D040C940F140C9413140C94B904E7
:100130000C9424140C946D040C94EC040C9405148D
:100140000C9428140C9452030C944D140C9430030A
:100150000C9409140C9436140C9489030C941A14FE
:100160000C9444140C9444030C94A3140C9418158C
:100170000C9416140C9489040C9413050C94A90582
:100180000C9432140C9481040C942C140C94D00311
:100190000C94E904202041433A20417070656E645C
:1001A0006564204576656E74004B696C6C656420EF
:1001B0006F6E6520736574206F662076616C75655F
:1001C000732E004B696C6C696E6720416C6C20501B
:1001D000574D2056616C75657300204C4E3A205285
:1001E000583A2000204C4E3A204164647265737383
:1001F0003A2000204C4E3A20536C6F7420537461A7
:100200007475733A2000204C4E3A20537065656433
:100210003A2000204C4E3A2044697361626C656458
:100220002E00204C4E3A2044697361626C696E67FF
:100230002066756E6374696F6E2074726967676596
:100240007265642E00204C4E3A20446972656374D6
:10025000696F6E3A2000094C4E3A2056616C756504
:100260003A2000204C4E3A2046756E6374696F6EDA
:100270003A200000002200250028002B002E00312B
:1002800000340002010000050108010B010505050D
:1002900005070508080808020202020A0A080804FD
:1002A000040404010101010101010103030303032B
:1002B000030303040707070C0C0C0C0C0C0C0C02BA
:1002C00002020206060606060606060B0B0B0B0BC1
:1002D0000B0B0B01021020200808102040102040BA
:1002E00080020102010804020101020408102040FA
:1002F0008080402010080402018004020180402018
:100300001008040201080402010102040810204040
:1003100080010204081020408000000A0B02090C32
:100320000D0E08070304010000000000000000009B
:1003300000000000000000000000000000000000BD
:10034000000000000012111000000000000000007A
:10035000000000000000000000000000000000207D
:100360002020523A2050574D5461736B20437265E0
:100370006174656400202041433A20416464696EE1
:100380006720504500202020523A20416464656473
:100390002050574D204576656E7400202020523A3B
:1003A00020416464696E672050574D204576656E24
:1003B0007400202020523A2047656E657261746592
:1003C00064204C696E6B0020617420706F73200094
:1003D000202020523A2056616C75653A200020207A
:1003E00020523A2053657175656E6365204C656EC9
:1003F0006774683A0900202020523A2053706565DE
:10040000643A0900202020523A20546172676574D2
:100410003A0900202020523A2043757272656E74AA
:100420003A0900204C4E3A205374617465204368A9
:10043000616E6765640020202020483A2043726581
:10044000617465642050574D48616E646C6572003C
:1004500020202020483A204F66667365743A0900D0
:1004600020202020483A2050696E3A0900202020A0
:1004700020483A204D61782056616C3A09002020CE
:100480002020483A204D696E2056616C3A090020C0
:10049000202020483A204E657720536572766F21E0
:1004A00000202041433A20496E697469616C697A81
:1004B000656420416E696D6174696F6E436861693E
:1004C0006E0000002100240027002A002D003000CB
:1004D000330001010000040107010A01204C4E3ADB
:1004E000204552524F5200204C4E493A2053656CE1
:1004F0006620496E697469616C697A656400204C94
:100500004E493A20496E697469616C697A65642064
:100510004C4E20706172742E00204C4E493A20538C
:10052000657474696E67204164647265737300203A
:100530004C4E493A204D617070656420616E2061B7
:100540006E696D6174696F6E00204C4E493A2046A9
:100550006F756E64206475706C6963617465002DDD
:100560002D2D2D2D2D2D2D2D2D2D53455455502018
:10057000454E4445442D2D2D2D2D2D2D2D2D2D2D2C
:100580000046726565204D656D6F72793A200046B0
:10059000726565204D656D6F72793A20002D2D2DA5
:1005A0002D2D2D2D2D2D2D2D5345545550204245AB
:1005B00047414E2D2D2D2D2D2D2D2D2D2D2D000076
:1005C0000020002300260029002C002F003200000C
:1005D00001000003010601090100181511241FBEC6
:1005E000CFEFD1E2DEBFCDBF00E00CBF12E0A0E054
:1005F000B2E0EEEAFAE300E00BBF02C007900D9212
:10060000AE35B107D9F724E0AEE5B2E001C01D92E6
:10061000A138B207E1F712E0CEEED2E000E006C06A
:1006200021970109802FFE010E942D1DCD3ED1078B
:1006300080E00807A9F70E9451150C94551D0C94F1
:100640000000FC01538D448D252F30E0842F90E075
:10065000821B930B541710F0CF96089501970895BD
:10066000FC01918D828D981761F0828DDF01A80FBA
:10067000B11D5D968C91928D9F5F9F73928F90E0DC
:1006800008958FEF9FEF0895FC01918D828D98174B
:1006900031F0828DE80FF11D858D90E008958FEF88
:1006A0009FEF0895FC01918D228D892F90E0805C51
:1006B0009F4F821B91098F739927089586EA93E0D3
:1006C0000E94520321E0892B09F420E0822F089533
:1006D000FC01848DDF01A80FB11DA35ABF4F2C91DF
:1006E000848D90E001968F739927848FA689B789AE
:1006F0002C93A089B1898C9180648C93938D848D87
:10070000981306C00288F389E02D80818F7D808355
:100710000895EF92FF920F931F93CF93DF93EC0115
:1007200081E0888F9B8D8C8D981305C0E889F989AD
:10073000808185FD24C0F62E0B8D10E00F5F1F4FCA
:100740000F731127E02E8C8DE8120CC00FB607FC3A
:10075000FACFE889F989808185FFF5CFCE010E9423
:100760006803F1CF8B8DFE01E80FF11DE35AFF4FB7
:10077000F0820B8FEA89FB898081806207C0EE8955
:10078000FF896083E889F98980818064808381E0C2
:1007900090E0DF91CF911F910F91FF90EF9008951E
:1007A000CF93DF93EC01888D8823C9F0EA89FB8918
:1007B000808185FD05C0A889B9898C9186FD0FC00F
:1007C0000FB607FCF5CF808185FFF2CFA889B989E4
:1007D0008C9185FFEDCFCE010E946803E7CFDF91BA
:1007E000CF91089580E090E0892B21F00E945E0374
:1007F000811125C080E090E0892B41F080E090E0FD
:10080000892B21F00E94000081111CC080E090E043
:10081000892B41F080E090E0892B21F00E940000BC
:10082000811113C080E090E0892BA1F080E090E07E
:10083000892B81F00E94000081110AC008950E9456
:100840000000D8CF0E940000E1CF0E940000EACF54
:100850000C940000089585ED8093BC008091BC004D
:1008600084FDFCCF1092CF02089540918002262F84
:1008700030E0240F311D21323105DCF42091CF020C
:100880002430C9F4FC0180E090E0861758F43091E0
:1008900080022191DC01A25ABD4FA30FB11D2C9300
:1008A0000196F3CF80918002680F6093800280E010
:1008B000089581E0089582E008950895E09150043C
:1008C00080914F04E81730F4F0E0EF5AFB4F80813D
:1008D00090E008958FEF9FEF0895909150048091DC
:1008E0004F04981750F4E92FF0E0EF5AFB4F2081A6
:1008F00030E09F5F9093500402C02FEF3FEFC9019B
:10090000089580914F0490E020915004821B91093A
:100910000895CF92DF92EF92FF920F931F93CF93A0
:10092000DF937C01262F972F8A018091D0028823A4
:1009300091F0C62FD72F6E01C40ED51ECC15DD0544
:1009400071F06991D701ED91FC910190F081E02D5A
:10095000C7011995F3CF642F822F0E943504C80177
:10096000DF91CF911F910F91FF90EF90DF90CF908B
:100970000895CF93DF931F92CDB7DEB7698320919F
:10098000D0022223D1F02091F302203240F021E066
:1009900030E0FC013383228380E090E015C0809139
:1009A000D102E82FF0E0EE52FD4F998190838F5FE6
:1009B0008093D1028093F30205C061E0CE010196DD
:1009C0000E94350481E090E00F90DF91CF9108956F
:1009D000089580E090E00895CF93DF93EC018C813F
:1009E0009D81892B21F48A819B819D838C83EC815D
:1009F000FD8180819181DC01ED91FC910190F0817C
:100A0000E02D199581110AC0EC81FD81228133818D
:100A10003D832C8381E0232B09F480E0DF91CF918B
:100A200008950E94351DCF93DF93EC01AE81BF8105
:100A30008C819D81EC85FD859F01220F331FFC0178
:100A400080819181F901E80FF91F4081518116964B
:100A50006C91169717968D919C9118970E94C313CD
:100A60008C859D8501969D878C87EC81FD812281F7
:100A700033818217930769F41D861C8684819581D2
:100A80009D838C83892B39F48A819B819D838C8300
:100A900002C081E001C080E0DF91CF910895CF9343
:100AA000DF931F92CDB7DEB786E092E049830E94C4
:100AB000E60D4981842F0F90DF91CF910C94740F34
:100AC000CF93DF931F92CDB7DEB783EF91E06983B9
:100AD0000E94E60D6981862F0F90DF91CF910C94D3
:100AE000740F8CED94E00C94070ECF93DF93C42F1A
:100AF00085E492E00E94E60D8C2F0E94740F82E242
:100B000092E00E94070ECC23D9F0C0917304D091DB
:100B10007404209769F088819981DC01ED91FC9142
:100B20000280F381E02D19950D80DE81C02DF1CF7B
:100B300083E192E00E94070E81E08093750402C079
:100B400010927504DF91CF91089583E294E00C94A4
:100B5000070EEF92FF921F93CF93DF93EC0183EC8C
:100B600091E00E94070E0E80DF81C02D2097A1F03A
:100B7000E881F981E680F78010E040E050E1612FE4
:100B8000F701878190850E94C3131F5F1031A9F779
:100B90000A80DB81C02DEACF89EA91E0DF91CF9115
:100BA0001F91FF90EF900C94070ECF93DF93C62F09
:100BB000D42F83E692E00E94E60D6C2F70E080E077
:100BC00090E04AE00E94130E86E592E00E94E60D56
:100BD0008D2F0E94740FDD2309F447C08C2F90E005
:100BE0009C01220F331FE0917104F0917204E20F17
:100BF000F31F0190F081E02D3097B9F121E02483BB
:100C00002381211132C02091920330919303283027
:100C1000310529F5C53060F440919E03CC2391F055
:100C2000019791E001C0990F8A95EAF781EA0CC01B
:100C300040919F03059791E001C0990F8A95EAF7CB
:100C400082EA02C081EA90E190954923609198037D
:100C50000E948510109295031092940306C08CEDAB
:100C600094E0DF91CF910C94070EDF91CF9108951E
:100C7000CF93DF93EA0184EE91E00E94E60DCE016E
:100C8000DF91CF910C9429111F920F920FB60F9202
:100C900011240BB60F922F933F934F935F936F9353
:100CA0007F938F939F93AF93BF93EF93FF9386EAC6
:100CB00093E00E946803FF91EF91BF91AF919F91E4
:100CC0008F917F916F915F914F913F912F910F90F5
:100CD0000BBE0F900FBE0F901F9018951F920F9292
:100CE0000FB60F9211240BB60F922F938F939F93F1
:100CF000EF93FF93E091B603F091B7038081E09109
:100D0000BC03F091BD0382FD12C090818091BF03AE
:100D10008F5F8F732091C003821751F0E091BF0362
:100D2000F0E0EA55FC4F958F8093BF0301C08081AE
:100D3000FF91EF919F918F912F910F900BBE0F908C
:100D40000FBE0F901F9018951F920F920FB60F9223
:100D500011240BB60F922F933F934F935F936F9392
:100D60007F938F939F93AF93BF93EF93FF93809164
:100D7000B900887F803609F49CC068F5883209F490
:100D80005BC090F4803109F454C038F4882309F42E
:100D9000F6C0883009F44DC0F6C0883109F44CC063
:100DA000803209F45DC0EFC0803409F468C048F4B3
:100DB000803309F455C0883309F0E5C08093CD0233
:100DC000D8C0803509F44FC0883509F45DC0883437
:100DD00009F0D9C0D6C0883909F4C7C0A8F488374B
:100DE00009F467C038F4883609F463C0803709F421
:100DF00060C0C9C0883809F4B8C0803909F45FC040
:100E0000803809F0C0C05BC0803B09F486C038F46C
:100E1000803A09F466C0883A09F47FC0B4C0803CC7
:100E200009F4A7C0883C09F4A4C0883B09F48AC02F
:100E3000AAC08091AA0210C09091CC028091CB02EE
:100E4000981770F5E091CC0281E08E0F8093CC0270
:100E5000F0E0E555FD4F80818093BB0085EC86C0B6
:100E60008093CD028EC0E091CC0281E08E0F809302
:100E7000CC028091BB00F0E0E555FD4F808390915E
:100E8000CC028091CB026EC0E091CC0281E08E0F4B
:100E90008093CC028091BB00F0E0E555FD4F80834C
:100EA0008091CE0281116DC081E08093A90284EA15
:100EB00061C083E08093CF021092A402CFCF8091D3
:100EC000A402803208F051C0E091A40281E08E0FAC
:100ED0008093A4028091BB00F0E0EC57FD4F80832B
:100EE000BDCF85EC8093BC001092CF028091A4020C
:100EF000803230F4E091A402F0E0EC57FD4F108214
:100F00006091A40270E0E0918202F091830284E893
:100F100092E019951092A40236C084E08093CF022B
:100F20001092810210928002E0917E02F0917F0285
:100F3000199580918002811105C081E08093800223
:100F400010925E02E091810281E08E0F8093810217
:100F5000F0E0E25AFD4F80818093BB0090918102C6
:100F600080918002981708F479CF85E88093BC00BF
:100F70000AC085EC8093BC001092CF0204C010928E
:100F8000CD020E942B04FF91EF91BF91AF919F91F1
:100F90008F917F916F915F914F913F912F910F9022
:100FA0000BBE0F900FBE0F901F9018951F920F92BF
:100FB0000FB60F9211240BB60F928F939F93EF935E
:100FC000FF93E3E7F0E080818F7D808380912601AD
:100FD0009091270180569A4F9093FB028093FA02DA
:100FE0008091FA029091FB0290932901809328014D
:100FF000D19A80818260808384E080930003109284
:10100000FF02FF91EF919F918F910F900BBE0F9078
:101010000FBE0F901F901895FC018081807680365E
:1010200011F4818108958081807682958F708E5F22
:1010300008951F920F920FB60F9211240BB60F92C4
:101040000F931F932F933F934F935F936F937F93D0
:101050008F939F93AF93BF93CF93DF93EF93FF93C0
:101060008091FA029091FB0280549C4F9093FB0276
:101070008093FA028091FA029091FB0290932901E9
:10108000809328018091FF028F5F8093FF028091FF
:101090000003843009F040C08091FF02893088F459
:1010A0008091F60290E0959587958093F602809165
:1010B000090181FF36C18091F60280688093F602B3
:1010C00030C1D59A80917300806280937300209123
:1010D00009018091F4029091F50221FD09C0FC0103
:1010E000E957FF4F808191810196918380830FC0E2
:1010F0004091F602FC01E058FF4F308121E0230FC0
:101100002083DC01A30FB11D4C9327FD10821092A8
:10111000FF0281E08093000380910003833009F097
:10112000AAC0E091FD02F091FE0240812091FC02F4
:101130009091090150E0022E02C0559547950A94FE
:10114000E2F7892F90E0959587958427952780FD74
:1011500004C01092FF0282E08CC08091FF028930AF
:10116000F0F48091F602308180FF09C081E090E0C8
:1011700001C0880F2A95EAF78095832307C081E094
:1011800090E001C0880F2A95EAF7832B8083809135
:10119000F60290E0959587958093F6026CC0809159
:1011A000FF02893059F4308181E090E001C0880F5E
:1011B0002A95EAF78095832380835DC0809101039F
:1011C0008F5F8093010390910203891748F5109275
:1011D000FF02A091F802B091F90280910103A80FDB
:1011E000B11D8C918093F602308181E090E001C0C6
:1011F000880F2A95EAF7832B8083809124019091B0
:1012000025018A5A9C4F9093FB028093FA028091A9
:10121000FA029091FB0290932901809328012BC040
:1012200081E08093F702C091F802D091F902009119
:10123000F4021091F502CE010E940C0820E030E08B
:10124000F801E058FF4F281788F4DE01A20FB31F02
:101250005C91408191E0940F9083D801A40FB11D5F
:101260005C9397FD10822F5F3F4FEDCF1092FF02EE
:1012700081E080930003809100038230D1F580915A
:10128000FF02811111C0E091FD02F091FE02208168
:1012900081E090E00090FC0202C0880F991F0A9440
:1012A000E2F7822B808325C08091FF028F3008F106
:1012B000E091FD02F091FE02208181E090E000903B
:1012C000FC0202C0880F991F0A94E2F780958223DE
:1012D00080831092FF0281E080930003E091F4028A
:1012E000F091F502E357FF4F808191810196918340
:1012F0008083809100038130A1F48091FF028111ED
:1013000005C0D59A80917300806209C08091FF0268
:10131000883338F010920003809173008D7F8093A2
:101320007300FF91EF91DF91CF91BF91AF919F91AA
:101330008F917F916F915F914F913F912F911F916D
:101340000F910F900BBE0F900FBE0F901F9018952E
:10135000CF93DF931F921F92CDB7DEB720917D040C
:1013600030917E04CE0101962115310519F4815882
:10137000944018C0AC01421B530BE0917F04F091E4
:10138000800480E090E0309759F09C012E5F3F4F41
:1013900080819181820F931F0280F381E02DF3CF32
:1013A000840F951F9A83898389819A810F900F906A
:1013B000DF91CF910895CF93DF931F92CDB7DEB722
:1013C000FC01808191E09093D0028093F202109210
:1013D000D1021092F30283E494E049830E94B9049D
:1013E0004981642F83E494E00E94B90481E00F9066
:1013F000DF91CF910C946613CF92DF92EF92FF9220
:101400000F931F93CF93DF93EC0110E80FEF8091C0
:10141000840390918303891709F4A4C0E82FF0E0B6
:10142000ED5FFC4FF080F7FE20C090918503981788
:1014300051F020918A0330918B032F5F3F4F3093FF
:101440008B0320938A0380938503009386038F2D5B
:101450008076803621F082958F708E5F01C080E0AB
:1014600080938703811107C044C080918703811155
:1014700040C0F0928703209185038091870390E01C
:10148000820F911D81389105A4F1C12EC21AF894E2
:101490008091830390918403981708F0A9C19091DB
:1014A0008503282F291B922F909383037894909182
:1014B0008403891708F09FC1D12C482F50E063E0C6
:1014C00073E0C6018D5F9C4F0E943A1D60918503B9
:1014D00070E06D5F7C4FA60183E093E00E943A1DAF
:1014E0008091840390918503891B809384031092DB
:1014F0008503809184038F5F80938403209185030B
:10150000382F321B87FD10928403909187038091BE
:101510008603391323C08F110EC030E02D5F3C4F7E
:1015200040918803509189034F5F5F4F5093890327
:10153000409388030CC020918A0330918B032F5F66
:101540003F4F30938B0320938A0320E030E090914B
:101550008403909385032115310531F4F826F09228
:10156000860355CF20E030E038872F83232B09F402
:10157000CCC28AED91E00E94E60D8F8198850E9491
:101580000C08F82E00E010E0EF81F8850F15B0F49C
:10159000E00FF11FE0803FE03E1518F080E30E946D
:1015A000540E6E2D70E080E090E040E10E94130E3A
:1015B00080E20E94540E0F5F1F4FE6CF21816281AF
:1015C000762F7F7080E8789FA0011124422B9081B4
:1015D000923BF1F0DA011196913B09F45EC048F4B8
:1015E000933889F1903B09F445C0923809F00CC159
:1015F00031C09C3B09F479C020F4943B09F4F5C058
:1016000003C19D3B09F481C2903D09F481C0FCC037
:1016100065FD03C081E090E002C082E090E020E040
:1016200030E0232B09F471C2440F551F6071840F01
:10163000951FDF91CF911F910F91FF90EF90DF9059
:10164000CF900C94000080E090E0892B09F45DC2FB
:1016500081E006C080E090E0892B09F456C280E06A
:10166000DF91CF911F910F91FF90EF90DF90CF907E
:101670000C94000080E090E0892B09F446C2462FCC
:1016800040726071CD01DF91CF911F910F91FF905A
:10169000EF90DF90CF900C94000066FF13C080E0C5
:1016A00090E0892B09F431C2462F40726071CD0160
:1016B000DF91CF911F910F91FF90EF90DF90CF902E
:1016C0000C94000080E090E0892B09F41EC2462FA4
:1016D00040716072CD01DF91CF911F910F91FF900A
:1016E000EF90DF90CF900C94000020E030E0232BAF
:1016F00009F40BC2462F40726071CD01DF91CF918A
:101700001F910F91FF90EF90DF90CF900C9400000D
:10171000822F8076803219F1803619F08111F5C15F
:101720001EC080E090E0892B09F4EFC11381812F66
:10173000807D803109F0E9C10481C1E0D1E041E060
:101740008D2F812309F040E02D2F2023DD0F6C2FFA
:1017500080E80E940000CF5FC53089F7D6C180E0E5
:1017600090E0892B09F4D1C1822F8F7130E8839FDB
:10177000C0011124860F911D25FB222720F9019617
:101780003381448150E03D3729F060E8369F400DB9
:10179000511D1124772381F0723081F0743081F073
:1017A000763081F0783081F07A3081F07C3081F0D1
:1017B0007E3081F0672F0FC061E40DC062E40BC082
:1017C00063E409C064E407C065E405C066E403C0DF
:1017D00067E401C068E4DF91CF911F910F91FF9002
:1017E000EF90DF90CF900C9400002C3369F48DC102
:1017F0009C2D980F59CE60918503482F461B50E0D1
:1018000070E06D5F7C4F68CE0E94E20D0F80D8853E
:10181000C02D8881873E09F011C189850C8110E0B7
:1018200090E8899F000D111D11246A818091980311
:10183000C0909903D0909A03209192033091930322
:1018400086137DC0C016D10609F05AC02630310576
:1018500001F58C852B8530E060E8869F200D311DD9
:10186000112480919603909197038217930789F032
:1018700061E080E090E00E94620F8CED94E0DF91E7
:10188000CF911F910F91FF90EF90DF90CF900C942C
:10189000070E61E088E090E00E94620FC6010E949E
:1018A000CF1261E08D810E940F1161E08E810E9454
:1018B000C81061E08A850E949F1061E08B810E94C0
:1018C000850F61E088E090E00E94620F8FEE8883D0
:1018D0008091960390919703282F2F772B87880F5D
:1018E000892F881F990B91958C87CE01DF91CF911D
:1018F0001F910F91FF90EF90DF90CF900C94A60F67
:101900002430310509F001C161E082E090E00E94DD
:10191000620F6091990370919A03462F4F77660F7B
:10192000672F661F770B71958FEBDF91CF911F911A
:101930000F91FF90EF90DF90CF900C948510C01620
:10194000D10609F05EC0C90102970297E8F48B81C5
:1019500086FD20C080738033E9F061E022303105DC
:1019600049F484E090E00E94620F8A81809398039A
:101970004A8105C080E090E00E94620F40E06A81E9
:101980008AEB0E9485103DC02730310549F58B81D7
:1019900086FF05C08CED94E00E94070E2DC0807379
:1019A0008033C1F76093980361E088E090E00E9483
:1019B000620FC8010E94CF1261E08D810E940F1159
:1019C00061E08E810E94C81061E08A850E949F10AC
:1019D00061E08B810E94850F61E088E090E00FC09C
:1019E0002530310571F440919D034F7D85EB0E94B8
:1019F00085108FEF8093980361E080E090E00E9473
:101A0000620F8091920390919303019709F07DC03A
:101A10008A818093980361E088E090E00E94620FE1
:101A2000C8010E94CF1261E08D810E940F1161E018
:101A30008E810E94C81061E08B8139C090E6980FBA
:101A4000933010F0853BE9F5209198039981291393
:101A50005CC0803A61F460E08A81DF91CF911F9190
:101A60000F91FF90EF90DF90CF900C940F11813A7F
:101A700061F460E08A81DF91CF911F910F91FF9017
:101A8000EF90DF90CF900C94C810823A61F460E040
:101A90008A81DF91CF911F910F91FF90EF90DF909E
:101AA000CF900C949F10853B81F560E08A81DF9197
:101AB000CF911F910F91FF90EF90DF90CF900C94FA
:101AC000850F843B11F580919203909193030197C8
:101AD0000497D8F489818A3321F48CED94E00E9434
:101AE000070E89818F3321F48CED94E00E94070E5C
:101AF00061E080E090E0DF91CF911F910F91FF9026
:101B0000EF90DF90CF900C94620FDF91CF911F91F7
:101B10000F91FF90EF90DF90CF900895EF92FF929A
:101B20000F931F93CF93DF938C017B01DC011296FF
:101B3000CD91DC911397209799F484E090E00E9476
:101B40004319FC01F182E08213821282D8011396BC
:101B50009C938E93129715969C938E93149711C015
:101B60008A819B81009711F0EC01FACF84E090E02C
:101B70000E944319FC01F182E082138212829B834E
:101B80008A8384E991E0DF91CF911F910F91FF90BB
:101B9000EF900C94070E682F83E494E00C94B90442
:101BA000009769F0FC0101900020E9F73197AF013F
:101BB000481B590BBC0186EA93E00C94A31480E007
:101BC00090E0089588E392E00C94D00D0F931F935A
:101BD000CF93DF938C01C0E0D0E0F801EC0FFD1F44
:101BE0006491662371F0E091A603F091A703019040
:101BF000F081E02D86EA93E01995892B11F021966A
:101C0000ECCFCE01DF91CF911F910F910895CF932B
:101C1000DF930E94E60DEC010E94E20D8C0F9D1FE8
:101C2000DF91CF9108958F929F92AF92BF920F93C1
:101C30001F93CF93DF93CDB7DEB7A1970FB6F8947C
:101C4000DEBF0FBECDBF19A2423008F44AE08E01BC
:101C50000F5D1F4F842E912CA12CB12CA501940156
:101C60000E940B1DE62FB901CA0101501109EA308B
:101C700014F4E05D01C0E95CD801EC93232B242B24
:101C8000252B61F7C8010E94D00DA1960FB6F894DC
:101C9000DEBF0FBECDBFDF91CF911F910F91BF90DF
:101CA000AF909F908F900895E091A603F091A703C5
:101CB0000190F081E02D682F86EA93E019944F920D
:101CC0005F926F927F928F929F92AF92BF92CF92CC
:101CD000DF92EF92FF926B017C01B42E9B01AC016D
:101CE0000E94061D882319F08BE392E027C026018D
:101CF0003701E89477F82FEF3FEF4FE75FE7C30135
:101D0000B2010E94061D81110DC02FEF3FEF4FE77A
:101D10005FE7C301B2010E94F41A18161CF48FE3A6
:101D200092E00CC02FEF3FEF4FE75FE4C701B60131
:101D30000E94941C181684F483E492E0FF90EF90C4
:101D4000DF90CF90BF90AF909F908F907F906F90DB
:101D50005F904F900C94D00D2FEF3FEF4FE75FEC6B
:101D6000C701B6010E94F41A87FDE6CF20E030E0FB
:101D7000A901C701B6010E94F41A87FF09C08DE2CC
:101D80000E94540E4C01F7FAF094F7F8F09402C058
:101D9000812C912CA12C60E070E080E09FE3AB14DB
:101DA00041F020E030E040E251E40E94F91AA394AF
:101DB000F6CF9B01AC01C701B6010E94711A2B013D
:101DC0003C010E94721B6B017C010E94A11B9B01C4
:101DD000AC01C301B2010E94701A2B013C014AE020
:101DE000C701B6010E94130E7C01E80CF91CBB2050
:101DF00029F08EE20E94540EE80EF91EDB2CDD2045
:101E000021F120E030E040E251E4C301B2010E9440
:101E1000991C2B013C010E94721B4B01A12CB12C7F
:101E20004AE0C501B4010E94130EE80EF91EC50177
:101E3000B4010E94A11B9B01AC01C301B2010E942D
:101E4000701A2B013C01DA94DACFC701FF90EF90B2
:101E5000DF90CF90BF90AF909F908F907F906F90CA
:101E60005F904F900895CF92DF92EF92FF92CF93C1
:101E7000DF936C01990FEE08FF08F7FE12C08DE2A8
:101E80000E94540EEC0166277727CB016C197D095F
:101E90008E099F094AE00E94130E7C01EC0EFD1E84
:101EA00006C04AE0C701B6010E94130E7C010E94E1
:101EB000E20D8E0D9F1DDF91CF91FF90EF90DF908F
:101EC000CF900895611107C0209192033091930340
:101ED0002817390741F0909393038093920383E28C
:101EE00094E00C94070E0895CF93DF93682F70E071
:101EF00080E090E04AE00E94130EEC010E94E20DA7
:101F00008C0F9D1FDF91CF910895CF93DF936111C7
:101F100004C090919D039817B1F0D62FC82F8093DD
:101F20009D03682F8091A0030E946005C073C03399
:101F300019F080E090E002C088E090E06D2FDF9122
:101F4000CF910C94620FDF91CF910895AF92BF9221
:101F5000DF92EF92FF920F931F93CF93DF931F9225
:101F6000CDB7DEB75C0109E11EE2EE24E394F12C6B
:101F700093E0D92E21E0C50129830E940C088093AB
:101F80000203809102038150109201039FEF298187
:101F900030910103381768F430910103F501E30F24
:101FA000F11D30819327309101033F5F309301038E
:101FB000EFCFF501E80FF11D9083F89480910003B5
:101FC000813059F48091FF02811738F0109200039C
:101FD000809173008D7F80937300789480910003CB
:101FE000813031F48091FF02843128F220E0C3CFA8
:101FF00080910003811164C0F894809173008F7DFB
:1020000080937300D59B07C080917300806280939A
:102010007300789455C0E091FD02F091FE0230818A
:10202000C7010090FC0202C0880F991F0A94E2F7D2
:10203000832B808380912401909125018A5A9C4FA3
:102040009093FB028093FA028091FA029091FB0236
:1020500090932901809328017894B092F902A0927C
:10206000F802109201031092F702F501808180932B
:10207000F602D09200031092FF02D19A8091730071
:10208000826080937300809100038330E1F380913C
:10209000F702882371F0E091F402F091F502E7571E
:1020A000FF4F8081918101969183808383E090E04E
:1020B00021C080910003823031F085E090E005C0BE
:1020C00082E090E002C084E090E0029711F42111D8
:1020D00051CF1B3108F01150015009F04BCF8091C6
:1020E0008E0390918F03019690938F0380938E03BC
:1020F00086E090E00F90DF91CF911F910F91FF90BC
:10210000EF90DF90BF90AF900895CF93DF93CDB75E
:10211000DEB760970FB6F894DEBF0FBECDBF8983E0
:102120006A834B83CE0101960E94A60F60960FB67C
:10213000F894DEBF0FBECDBFDF91CF910895FF921F
:102140000F931F93CF93DF9390919F03611102C070
:102150009817C1F0F62EC82F082F092780939F03E8
:10216000D5E011E0F11003C0812F802339F0412F19
:102170004C236D2F8091A0030E94D505110FDF5FC6
:10218000D93081F7DF91CF911F910F91FF90089582
:10219000FF920F931F93CF93DF93D0919E03611112
:1021A00002C0D817B1F1162FC82FD82780939E03ED
:1021B00001E0FF24F394111103C08F2D8D2339F01A
:1021C0004F2D4C23602F8091A0030E94D505FF0C5A
:1021D0000F5F053081F7111102C0D4FF18C04C2FDA
:1021E000407160E08091A0030E94D505112379F031
:1021F0004C2F407260919203709193038091A003E1
:10220000DF91CF911F910F91FF900C947505D5FD33
:10221000EFCFDF91CF911F910F91FF900895611142
:1022200004C090919B03981799F080939B03882397
:1022300021F0813021F0482F03C041E001C040E08F
:1022400060919203709193038091A0030C944F05C9
:102250000895CF93DF93BC0180E090E04AE00E94B4
:10226000130EEC010E94E20D8C0F9D1FDF91CF91A8
:1022700008952F923F924F925F926F927F928F922A
:102280009F92AF92BF92CF92DF92EF92FF920F9305
:102290001F93CF93DF9300D000D0CDB7DEB79E83DE
:1022A0008D837B0186E090E00E9443198C01DC0164
:1022B00015961C921E921497ED81FE8160857185A2
:1022C000828593850E946B1B6E197F0977FF03C07F
:1022D000719561957109072E000C880B990B0E946E
:1022E000A31B9B01AC010E94711A0E94DD1A0E947F
:1022F000721BD80113967C936E9312976138BFE3DB
:102300007B0720F4CB01880F991F02C08FEF9FEF4E
:102310000E944319F8019183808383E194E00E9435
:10232000E60DAD81BE8118966D917D918D919C9148
:102330001B9742E00E945F0E0E94E20D84E094E051
:102340000E94E60DC7010E94291186EF93E00E94CA
:10235000E60D42E060E070E080E09FE30E945F0EE7
:102360000E94E20D8EED93E00E94E60DF80182815D
:1023700093810E9429110E94E20D212C312CC7016A
:10238000A0E0B0E089839A83AB83BC83D801129626
:102390008D919C9113972816390608F0A9C0AD813C
:1023A000BE811896CD90DD90ED90FC901B976981D1
:1023B0007A818B819C810E94A11B2B013C019B0196
:1023C000AC01C701B6010E94701A4B015C0120E00C
:1023D00030E0A9010E94941C181624F0B7FAB094BA
:1023E000B7F8B09420E030E040E05FE3C501B4010D
:1023F0000E94F41A87FF07C0ED81FE814086518656
:102400006286738623C0A3019201C701B6010E94B0
:10241000F41A20E030E040E05FE387FF0DC0C70121
:10242000B6010E94711AAD81BE8118966D937D939D
:102430008D939C931B970AC0C701B6010E94701A26
:10244000ED81FE816087718782879387AD81BE8130
:102450001696ED90FC901797F801C080D180C101CD
:10246000880F991FC80ED91ED7016D917C9180E00D
:1024700090E00E94A11BED81FE812085318542857F
:1024800053850E94711A4B015C01D70114966D911E
:102490007C91159780E090E00E94A11B9B01AC010C
:1024A000C501B4010E94711A0E94721BF7012281BA
:1024B00033812617370708F4B901D6016D937C9351
:1024C00080ED93E00E94E60DED81FE8160857185CF
:1024D0008285938542E00E945F0E87EC93E00E9424
:1024E000E60DC1010E94330FFFEF2F1A3F0A4ECFB6
:1024F00082EB93E00E94070EC80126960FB6F8946F
:10250000DEBF0FBECDBFDF91CF911F910F91FF9026
:10251000EF90DF90CF90BF90AF909F908F907F9083
:102520006F905F904F903F902F900895EF92FF92A1
:102530000F931F93CF93DF931F921F92CDB7DEB7F8
:102540007C018BE993E069837A830E94070EF7018F
:102550000281138169817A810115110539F4C7015E
:102560000E943911F701938382830BC0F8018481A3
:102570009581009711F08C01F9CFC7010E943911A4
:10258000F8019583848385E893E00F900F90DF91A5
:10259000CF911F910F91FF90EF900C94070EE2E9FD
:1025A000F3E090878783608171812681AC01868505
:1025B0000C943806AF92BF92CF92DF92EF92FF92C7
:1025C0000F931F93CF93DF937C016B015A0185E733
:1025D00093E00E94070ED7011696CD91DC911797D4
:1025E000209799F58EE090E00E944319EC018AE073
:1025F00092E099838883DF82CE821B821A821D82B9
:102600001C82188619861A861B861D861C868FE5F5
:1026100093E00E94070E84E090E00E944319FC01C1
:10262000D183C08313821282D70117969C938E9315
:102630001697B501CE010E949612D7011696ED911C
:10264000FC9117976081718134C0E881F98186819E
:1026500097818C159D0531F10A80DB81C02D209773
:10266000A1F78EE090E00E9443198C018AE092E08D
:10267000F80191838083D782C682138212821582E9
:1026800014821086118612861386158614868FE5AD
:1026900093E00E94070E84E090E00E944319EC0151
:1026A00019830883B501888199810E9496126881F7
:1026B0007981C701DF91CF911F910F91FF90EF902A
:1026C000DF90CF90BF90AF900C948E0D382F20915B
:1026D000F3029091F202213208F049C08091CF02BA
:1026E0008111FCCF42E04093CF023093CE023FEF06
:1026F0003093CD021092CC022093CB02A2EDB2E037
:102700004BEA52E0FA013E2F341B321718F43D9188
:102710003193F9CF1092AA022091AA02990F922B1D
:102720009093AA029091A902913061F41092A902AB
:102730009091AA029093BB009091BC0093FDF8CFBA
:1027400095EC01C095EE9093BC009091CF02923031
:10275000E1F39091CD029F3F79F08091CD028032DC
:1027600041F08091CD02803331F084E005C081E0FA
:1027700003C082E001C083E01092D1021092F30204
:102780001092D00208951F93CF93DF931F92CDB77D
:10279000DEB7152FFC01808191E09093D0028093E9
:1027A000F2021092D1021092F302F4E06F9FB00196
:1027B00011246A5F7F4F83E494E049830E94B90447
:1027C00080E090E00E94CB0D80E090E00E94CB0D75
:1027D0004981842F912F0E94CB0D812F90E00E9480
:1027E000CB0D81E00F90DF91CF911F910C94661378
:1027F00090E0FC013197E231F10508F04EC08827E6
:10280000EE58FF4F8F4F0C942D1D809180008F77D5
:1028100003C0809180008F7D809380000895809117
:102820008000877FF9CF84B58F7702C084B58F7D14
:1028300084BD08958091B0008F7703C08091B0006F
:102840008F7D8093B0000895809190008F7707C0AE
:10285000809190008F7D03C080919000877F80934E
:10286000900008958091A0008F7707C08091A0000C
:102870008F7D03C08091A000877F8093A000089582
:10288000809120018F7707C0809120018F7D03C048
:1028900080912001877F8093200108951F93CF931B
:1028A000DF93282F30E0F901E75EFC4F8491F901B6
:1028B000ED52FD4FD491F901E357FD4FC491CC2364
:1028C000C9F0162F81110E94F813EC2FF0E0EE0FE3
:1028D000FF1FED58FD4FA591B4918FB7F8941111DA
:1028E00005C09C91ED2FE095E92302C0EC91ED2B02
:1028F000EC938FBFDF91CF911F9108953FB7F8946C
:102900008091A5029091A602A091A702B091A80281
:1029100026B5A89B05C02F3F19F00196A11DB11D3A
:102920003FBFBA2FA92F982F8827820F911DA11D75
:10293000B11DBC01CD0142E0660F771F881F991FB2
:102940004A95D1F70895CF92DF92EF92FF920F93BD
:102950001F93CF93DF936C017A018B01C0E0D0E02D
:10296000CE15DF0589F0D8016D918D01D601ED916D
:10297000FC910190F081E02DC6011995892B11F48D
:102980007E0102C02196ECCFC701DF91CF911F914C
:102990000F91FF90EF90DF90CF9008951F920F92CC
:1029A0000FB60F9211242F933F938F939F93AF9362
:1029B000BF938091790490917A04A0917B04B091A7
:1029C0007C043091780423E0230F2D3720F4019606
:1029D000A11DB11D05C026E8230F0296A11DB11D42
:1029E000209378048093790490937A04A0937B04D5
:1029F000B0937C048091A5029091A602A091A702B9
:102A0000B091A8020196A11DB11D8093A5029093DB
:102A1000A602A093A702B093A802BF91AF919F9185
:102A20008F913F912F910F900FBE0F901F9018958F
:102A3000E6EAF3E01382128288EE93E0A0E0B0E0D1
:102A400084839583A683B78320E132E0318320839A
:102A500025EC30E03587248724EC30E03787268763
:102A600020EC30E0318B208B21EC30E0338B228B5B
:102A700022EC30E0358B248B26EC30E0378B268B34
:102A8000118E128E138E148EE3E4F4E01382128200
:102A900084839583A683B78382E292E091838083C7
:102AA0000895789484B5826084BD84B5816084BDC6
:102AB00085B5826085BD85B5816085BD80916E00DC
:102AC000816080936E00109281008091810082600D
:102AD000809381008091810081608093810080914A
:102AE00080008160809380008091B1008460809339
:102AF000B1008091B00081608093B000809191001E
:102B00008260809391008091910081608093910018
:102B1000809190008160809390008091A1008260FC
:102B20008093A1008091A10081608093A100809199
:102B3000A00081608093A000809121018260809339
:102B400021018091210181608093210180912001E8
:102B500081608093200180917A00846080937A0064
:102B600080917A00826080937A0080917A008160FF
:102B700080937A0080917A00806880937A00109226
:102B8000C100E091B603F091B70382E08083E09149
:102B9000B203F091B3031082E091B403F091B50356
:102BA0008FEC80831092BE03E091BA03F091BB03D7
:102BB00086E08083E091B803F091B9038081806161
:102BC0008083E091B803F091B903808188608083AD
:102BD000E091B803F091B903808180688083E0912F
:102BE000B803F091B90380818F7D80838DE995E0F2
:102BF0000E94070E8FE895E00E94E60D0E94A8094A
:102C00000E94330F81E090E00E944319EC0180E4C0
:102C100088831092500410924F041092D1021092A7
:102C2000F3021092CF0211E01093CE021092A9028B
:102C300061E084E10E944E1461E085E10E944E143F
:102C40008091B9008E7F8093B9008091B9008D7F0B
:102C50008093B90088E48093B80085E48093BC0039
:102C600040E060E0CE010E94DB0988811093D00231
:102C70008093F2021092D1021092F30260E083E49A
:102C800094E00E94B90481E00E94661388819091CB
:102C9000CF029111FCCF91E09093CF029093CE029E
:102CA0002FEF2093CD021092CC021092CB02909382
:102CB000AA029091AA02880F892B8093AA02809180
:102CC000A902813061F41092A9028091AA02809336
:102CD000BB008091BC0083FDF8CF85EC01C085EE80
:102CE0008093BC008091CF028130E1F38091CC02CF
:102CF000811103C08091CC0201C081E0ABEAB2E057
:102D000021E534E0F9019E2F921B981718F49D914C
:102D10009193F9CF1092500480934F0483E494E090
:102D20000E946D04182F482F4F76406160E0CE015D
:102D30000E94DB0940E76EEFCE010E94DB09412FC4
:102D400060E0CE010E94DB090E947E144B015C0111
:102D500055E0C52ED12CE12CF12C0E947E14DC0113
:102D6000CB0188199909AA09BB09883E9340A1059E
:102D7000B10558F021E0C21AD108E108F10838EE97
:102D8000830E33E0931EA11CB11CC114D104E104D5
:102D9000F10419F7412F416A60E0CE010E94DB097E
:102DA00089E090E00E9443198C0187E890E0D80107
:102DB00011969C938E938BE792E013969C938E933F
:102DC000129715961C921E92149781E016968C937A
:102DD00016971896DC93CE9317978EE794E00E948F
:102DE000E60D87E890E00E9429118DE694E00E94AC
:102DF000E60D8BE792E00E94291180E694E00E94A4
:102E0000E60D81E00E94740F80E594E00E94E60DDB
:102E100080E090E00E94291186E394E00E94070E72
:102E20008FE894E00E94070E88E090E00E9443192A
:102E3000EC0184E392E0998388831B821A821D82CD
:102E40001C821F821E8281EA94E00E94070E42E3E8
:102E500050E0B801CE010E94DA1240E050E0B80123
:102E6000CE010E94DA1289E090E00E9443198C01A1
:102E70008FE8E3E0F3E0DF011D928A95E9F7E1E0F6
:102E8000F3E08491EBEBF2E02491222399F030E01F
:102E9000220F331FF901EE53FB4FA591B491F901B5
:102EA000ED58FD4F259134919FB7F894EC91E82BA4
:102EB000EC939FBFE1E0F3E02491EBEBF2E0E491CF
:102EC000F0E0EE0FFF1FED58FD4F4591549180E06B
:102ED00091E031E0291741F08F5F932F082E01C058
:102EE000990F0A94EAF7F6CF5093FE024093FD0241
:102EF0008093FC0283E093E09093F5028093F402C8
:102F000080910A018D7F80930A01E091FD02F0918A
:102F1000FE02208181E090E00090FC0202C0880F58
:102F2000991F0A94E2F780958223808310922001F2
:102F300081E08093210110920003D59A8091730063
:102F400080628093730080912101887F81608093EB
:102F5000210110929303109292038AE293E29093DC
:102F600097038093960310929C031092A0031092F3
:102F7000A10387E492E00E94D00D0E94E20D8091AF
:102F8000920390919303892B79F48AE293E20E9451
:102F9000CF1261E087E090E00E94620F4AE266E4AF
:102FA0008FEB0E94851004C08CED94E00E94070E08
:102FB000C8010E94FC09C8010E94FC09809192038B
:102FC00090919303892BE9F489E195E00E94070E23
:102FD0008091920390919303892B79F48AE293E292
:102FE0000E94CF1261E082E090E00E94620F4AE20C
:102FF00066E48FEB0E94851004C08CED94E00E9483
:10300000070EC8010E94FC098EEF94E00E94070E93
:1030100082E190E00E9443199093720480937104BE
:1030200080E090E0E0917104F0917204E80FF91FE4
:1030300011821082029682319105A1F7F801118266
:10304000108280E18283138214821582168287EEB9
:1030500094E00E94070E1093770400937604009189
:1030600073041091740401151105B1F487E090E028
:103070000E944319FC01D183C08381E08283838352
:10308000148216821582F0937404E0937304A09165
:103090007104B091720430C0C0907104D090720479
:1030A000F601E280F380E114F10461F089E495E037
:1030B0000E94070ED7011196DC93CE9381E0139600
:1030C0008C931EC0F80185819681009711F08C01C8
:1030D000F9CF87E090E00E944319FC01D183C083BF
:1030E00081E082838383148216821582D80116962A
:1030F000FC93EE931597D6011396FC93EE931297DB
:103100008FE295E00E94070E81E895E00E94E60DAF
:103110000E94A8090E94330F8FE595E00E94070ED8
:1031200001E0AA24A394B12CC0907604D090770437
:10313000C6010E94FC098091750481118DC0F601C1
:103140008281882349F143815481658176812FB73B
:10315000F8948091790490917A04A0917B04B091C5
:103160007C042FBF481759076A077B0708F074C013
:103170002FB7F8948091790490917A04A0917B0400
:10318000B0917C042FBF2281820F911DA11DB11D22
:1031900083839483A583B683C0917304D091740410
:1031A000209721F4D601ED90FC9043C08C818823B8
:1031B00041F188819981DC01ED91FC910190F081D0
:1031C000E02D19958C8381111CC09A81953068F48B
:1031D000992339F091508A2D01C0880F9A95EAF70A
:1031E00001C080E190919E030AC09550F50102C094
:1031F000EE0FFF1F9A95E2F7CF0190919F0389236D
:1032000071F50D80DE81C02DCBCFD7012C9130E040
:10321000F901E75EFC4F8491F901ED52FD4FD49026
:10322000F901E357FD4F1491111107C0F701E28036
:10323000F380E114F10449F70FC081110E94F813E3
:10324000E12FF0E0EE0FFF1FE154FA4FA591B4918A
:10325000EC91ED2159F305C00E94F20365CF0C8378
:10326000D0CFD70111968C91209171049091720466
:10327000E22FF92FE80FF11DE80FF11D0190F08109
:10328000E02D0483D3CFCF93DF938230910510F4E8
:1032900082E090E0E0917F04F091800420E030E053
:1032A000C0E0D0E0309711F14081518148175907B3
:1032B000C0F04817590761F482819381209719F073
:1032C0009B838A832BC09093800480937F0426C0C5
:1032D0002115310519F04217530718F49A01BE0160
:1032E000DF01EF010280F381E02DDCCF21153105F4
:1032F00009F1281B390B2430310590F412968D9179
:103300009C9113976115710521F0FB0193838283D2
:1033100004C09093800480937F04FD01329644C0E2
:10332000FD01E20FF31F81939193225031092D93F8
:103330003C933AC020917D0430917E04232B41F4CC
:10334000209102023091030230937E0420937D0489
:1033500020910002309101022115310541F42DB771
:103360003EB74091040250910502241B350BE091B9
:103370007D04F0917E04E217F307A0F42E1B3F0BAF
:103380002817390778F0AC014E5F5F4F24173507D7
:1033900048F04E0F5F1F50937E0440937D0481934D
:1033A000919302C0E0E0F0E0CF01DF91CF9108956A
:1033B0000F931F93CF93DF93009709F48CC0FC0108
:1033C00032971382128200917F04109180040115BC
:1033D000110581F420813181820F931F20917D049A
:1033E00030917E042817390779F5F0937E04E09335
:1033F0007D0471C0D80140E050E0AE17BF0750F423
:1034000012962D913C911397AD012115310509F1CB
:10341000D901F3CF9D01DA01338322836081718169
:10342000860F971F8217930769F4EC012881398171
:10343000260F371F2E5F3F4F318320838A819B8168
:1034400093838283452B29F4F0938004E0937F04D7
:1034500042C01396FC93EE931297ED014991599156
:103460009E01240F351FE217F30771F480819181CB
:10347000840F951F029611969C938E93828193815F
:1034800013969C938E931297E0E0F0E0D801129689
:103490008D919C911397009719F0F8018C01F6CF4C
:1034A0008D919C9198012E5F3F4F820F931F209129
:1034B0007D0430917E042817390769F4309729F488
:1034C0001092800410927F0402C013821282109323
:1034D0007E0400937D04DF91CF911F910F91089599
:1034E0005058BB27AA270E94881A0C94421C0E949D
:1034F000341C38F00E943B1C20F039F49F3F19F433
:1035000026F40C94311C0EF4E095E7FB0C94021C9D
:10351000E92F0E94531C58F3BA17620773078407F8
:10352000950720F079F4A6F50C948D1C0EF4E09527
:103530000B2EBA2FA02D0B01B90190010C01CA016D
:10354000A0011124FF27591B99F0593F50F4503E18
:1035500068F11A16F040A22F232F342F4427585F0A
:10356000F3CF469537952795A795F0405395C9F722
:103570007EF41F16BA0B620B730B840BBAF09150DA
:10358000A1F0FF0FBB1F661F771F881FC2F70EC079
:10359000BA0F621F731F841F48F48795779567954C
:1035A000B795F7959E3F08F0B0CF9395880F08F038
:1035B0009927EE0F9795879508950E94751C90F0B6
:1035C0009F3748F4911116F40C948E1C60E070E063
:1035D00080E89FE3089526F01B16611D711D811D73
:1035E0000C94081C0C94231C0E94DE1B08F481E040
:1035F00008950E940D1B0C94421C0E943B1C58F025
:103600000E94341C40F029F45F3F29F00C94021C06
:1036100051110C948E1C0C94311C0E94531C68F3A5
:103620009923B1F3552391F3951B550BBB27AA277B
:1036300062177307840738F09F5F5F4F220F331FB5
:10364000441FAA1FA9F335D00E2E3AF0E0E832D07D
:1036500091505040E695001CCAF72BD0FE2F29D080
:10366000660F771F881FBB1F261737074807AB0752
:10367000B0E809F0BB0B802DBF01FF2793585F4FC7
:103680003AF09E3F510578F00C94021C0C948E1C6D
:103690005F3FE4F3983ED4F3869577956795B795A9
:1036A000F7959F5FC9F7880F911D9695879597F9B4
:1036B0000895E1E0660F771F881FBB1F621773072D
:1036C0008407BA0720F0621B730B840BBA0BEE1F42
:1036D00088F7E09508950E94721B6894B1110C94CC
:1036E0008E1C08950E945B1C88F09F5798F0B92F9C
:1036F0009927B751B0F0E1F0660F771F881F991F27
:103700001AF0BA95C9F714C0B13091F00E948D1C1F
:10371000B1E008950C948D1C672F782F8827B85F2F
:1037200039F0B93FCCF3869577956795B395D9F77E
:103730003EF490958095709561957F4F8F4F9F4F88
:103740000895E89409C097FB3EF490958095709594
:1037500061957F4F8F4F9F4F9923A9F0F92F96E9DD
:10376000BB279395F695879577956795B795F11152
:10377000F8CFFAF4BB0F11F460FF1BC06F5F7F4FEF
:103780008F4F9F4F16C0882311F096E911C0772301
:1037900021F09EE8872F762F05C0662371F096E80A
:1037A000862F70E060E02AF09A95660F771F881FD9
:1037B000DAF7880F9695879597F90895990F00087D
:1037C000550FAA0BE0E8FEEF16161706E807F907F3
:1037D000C0F012161306E407F50798F0621B730B8E
:1037E000840B950B39F40A2661F0232B242B252B0F
:1037F00021F408950A2609F4A140A6958FEF811DB2
:10380000811D089597F99F6780E870E060E0089552
:10381000882371F4772321F09850872B762F07C0E7
:10382000662311F499270DC09051862B70E060E05B
:103830002AF09A95660F771F881FDAF7880F9695FA
:10384000879597F908959F3F31F0915020F487951F
:1038500077956795B795880F911D9695879597F9F8
:1038600008959FEF80EC089500240A941616170619
:1038700018060906089500240A9412161306140661
:1038800005060895092E0394000C11F4882352F0C4
:10389000BB0F40F4BF2B11F460FF04C06F5F7F4F7C
:1038A0008F4F9F4F089557FD9058440F551F59F063
:1038B0005F3F71F04795880F97FB991F61F09F3F1D
:1038C00079F087950895121613061406551FF2CF46
:1038D0004695F1DF08C0161617061806991FF1CF96
:1038E000869571056105089408950E945B1CA0F0FF
:1038F000BEE7B91788F4BB279F3860F41616B11DD0
:10390000672F782F8827985FF7CF869577956795EB
:10391000B11D93959639C8F30895E894BB2766279F
:103920007727CB0197F908950E94DE1B08F48FEFEB
:1039300008950E94AC1C0C94421C0E94341C38F068
:103940000E943B1C20F0952311F00C94021C0C9457
:10395000311C11240C948E1C0E94531C70F3959FF3
:10396000C1F3950F50E0551F629FF001729FBB2776
:10397000F00DB11D639FAA27F00DB11DAA1F649F12
:103980006627B00DA11D661F829F2227B00DA11DC5
:10399000621F739FB00DA11D621F839FA00D611D4B
:1039A000221F749F3327A00D611D231F849F600D6C
:1039B000211D822F762F6A2F11249F5750409AF095
:1039C000F1F088234AF0EE0FFF1FBB1F661F771F21
:1039D000881F91505040A9F79E3F510580F00C94EC
:1039E000021C0C948E1C5F3FE4F3983ED4F3869542
:1039F00077956795B795F795E7959F5FC1F7FE2B8C
:103A0000880F911D9695879597F908950E94DE1B62
:103A1000880B990B0895A1E21A2EAA1BBB1BFD016E
:103A20000DC0AA1FBB1FEE1FFF1FA217B307E4079D
:103A3000F50720F0A21BB30BE40BF50B661F771FF5
:103A4000881F991F1A9469F76095709580959095D5
:103A50009B01AC01BD01CF010895EE0FFF1F881F30
:103A60008BBF0790F691E02D199481E090E0F894D7
:103A70000C94551D6817790768F4FB01DC01E40F0D
:103A8000F51FA40FB51F02C002900E924150504086
:103A9000D8F708950C944C1DFB01DC0102C0019085
:0E3AA0000D9241505040D8F70895F894FFCF92
:103AAE0000008104800000000000130500000000EB
:103ABE008903A3142103D0035203300344030000EF
:103ACE000000B9048904E9045D0481046D045E04F8
:103ADE0000000000EC04A9050D0A006E616E00697D
:103AEE006E66006F766600204C4E493A2053746520
:0E3AFE00616C696E67204164647265737300C9
:00000001FF
