:100000000C942D010C945E010C945E010C945E0125
:100010000C945E010C945E010C945E010C945E01E4
:100020000C945E010C945E010C945E010C945E01D4
:100030000C945E010C945E010C945E010C945E01C4
:100040000C945E010C945E010C945E010C945E01B4
:100050000C945E010C945E010C945E010C94A1035F
:100060000C945E010C945E010C945E010C945E0194
:100070000C945E010C945E010C945E010C945E0184
:100080000C945E010C945E010C945E010C945E0174
:100090000C945E010C945E010C945E010C94EB03D5
:1000A0000C945E010C945E010C945E010C945E0154
:1000B0000C945E010C945E010C945E010C945E0144
:1000C0000C945E010C945E010C945E010C945E0134
:1000D0000C945E010C945E010C945E010C945E0124
:1000E0000C945E01EB01EE01DD01E101E501250269
:1000F000F201F601FC01000204020A020E021202E1
:10010000250218021C0220020C9425020C94E10125
:100110000C941C020C940E020C94F2010C9400023C
:100120000C94DD010C94FC010C9412020C94180246
:100130000C94EB010C941D050C94F6010C94F10247
:100140000C949C030C9400030C9414030C941C0357
:100150000C9404020C944C030C94EE010C94E501F5
:100160000C9420020C940A020C94F002000022006D
:10017000250028002B002E00310034000201000071
:10018000050108010B010505050507050808080814
:10019000020202020A0A080804040404010101011F
:1001A000010101010303030303030303040707071A
:1001B0000C0C0C0C0C0C0C0C0202020206060606BF
:1001C000060606060B0B0B0B0B0B0B0B010210208C
:1001D000200808102040102040800201020108047D
:1001E0000201010204081020408080402010080411
:1001F000020180040201804020100804020108046A
:1002000002010102040810204080010204081020AD
:10021000408000000A0B02090C0D0E0807030401C0
:1002200000000000000000000000000000000000CE
:10023000000000000000000000000000000012119B
:10024000100000000000000000000000000000009E
:1002500000000000000000001D0511241FBECFEFAC
:10026000D1E2DEBFCDBF00E00CBF12E0A0E0B2E003
:10027000E8E7F0E100E00BBF02C007900D92A83163
:10028000B107D9F722E0A8E1B2E001C01D92AA3E71
:10029000B207E1F711E0CDE2D1E000E006C021971E
:1002A0000109802FFE010E940007CC32D10780E0B7
:1002B0000807A9F70E9431050C943A080C94000035
:1002C000382F2091D8029091D702213208F049C0EE
:1002D0008091B4028111FCCF42E04093B40230938C
:1002E000B3023FEF3093B2021092B1022093B002FA
:1002F000A7EBB2E040E952E0FA013E2F341B32177F
:1003000018F43D913193F9CF10928F0220918F0212
:10031000990F922B90938F0290918E02913061F4FD
:1003200010928E0290918F029093BB009091BC002E
:1003300093FDF8CF95EC01C095EE9093BC009091A1
:10034000B4029230E1F39091B2029F3F79F0809134
:10035000B202803241F08091B202803331F084E009
:1003600005C081E003C082E001C083E01092B602C4
:100370001092D8021092B502089590E0FC01EE5E52
:10038000FD4F4491FC01E453FE4F2491FC01EA57D8
:10039000FE4F9491992309F466C0442309F455C093
:1003A00050E0FA013197E231F10508F04EC088279C
:1003B000EE58FF4F8F4F0C940007809180008F778D
:1003C00007C0809180008F7D03C080918000877F6F
:1003D000809380003AC084B58F7702C084B58F7D4A
:1003E00084BD33C08091B0008F7703C08091B0008E
:1003F0008F7D8093B00029C0809190008F7707C0D7
:10040000809190008F7D03C080919000877F8093C2
:1004100090001BC08091A0008F7707C08091A00042
:100420008F7D03C08091A000877F8093A0000DC0C6
:10043000809120018F7707C0809120018F7D03C0BC
:1004400080912001877F80932001E92FF0E0EE0F5B
:10045000FF1FE459FE4FA591B4918FB7F894EC912A
:100460002E2B2C938FBF08953FB7F89480918A026A
:1004700090918B02A0918C02B0918D0226B5A89B21
:1004800005C02F3F19F00196A11DB11D3FBFBA2F26
:10049000A92F982F8827820F911DA11DB11DBC0186
:1004A000CD0142E0660F771F881F991F4A95D1F74B
:1004B00008958F929F92AF92BF92CF92DF92EF9268
:1004C000FF926B017C010E9434024B015C01C1145C
:1004D000D104E104F104F1F00E943402DC01CB010B
:1004E00088199909AA09BB09883E9340A105B1055D
:1004F00070F321E0C21AD108E108F10888EE880EF5
:1005000083E0981EA11CB11CC114D104E104F104C4
:1005100019F7DDCFFF90EF90DF90CF90BF90AF90B5
:100520009F908F900895CF92DF92EF92FF920F935A
:100530001F93CF93DF936C017A018B01C0E0D0E071
:10054000CE15DF0589F0D8016D918D01D601ED91B1
:10055000FC910190F081E02DC6011995892B11F4D1
:100560007E0102C02196ECCFC701DF91CF911F9190
:100570000F91FF90EF90DF90CF90089585ED8093DD
:10058000BC008091BC0084FDFCCF1092B4020895A1
:1005900040913A02262F30E0240F311D21323105DF
:1005A000DCF42091B4022430C9F4FC0180E090E036
:1005B000861758F430913A022191DC01A85EBD4FB4
:1005C000A30FB11D2C930196F3CF80913A02680FCF
:1005D00060933A0280E0089581E0089582E00895F2
:1005E0000895E091600280915F02E81730F4F0E036
:1005F000EF59FD4F808190E008958FEF9FEF0895B0
:100600009091600280915F02981750F4E92FF0E01A
:10061000EF59FD4F208130E09F5F9093600202C050
:100620002FEF3FEFC901089580915F0290E0209184
:100630006002821B91090895CF92DF92EF92FF92A0
:100640000F931F93CF93DF937C01262F972F8A015F
:100650008091B502882391F0C62FD72F6E01C40E6A
:10066000D51ECC15DD0571F06991D701ED91FC9196
:100670000190F081E02DC7011995F3CF642F822FEF
:100680000E94C802C801DF91CF911F910F91FF9086
:10069000EF90DF90CF900895CF93DF931F92CDB767
:1006A000DEB769832091B5022223D1F02091D802D0
:1006B000203240F021E030E0FC013383228380E0EF
:1006C00090E015C08091B602E82FF0E0E954FD4FAC
:1006D000998190838F5F8093B6028093D80205C082
:1006E00061E0CE0101960E94C80281E090E00F9087
:1006F000DF91CF910895682F89ED92E00C944C031F
:10070000CF93C62F9091E50221E02093B5029093FC
:10071000D7021092B6021092D802682F89ED92E0AB
:100720000E944C036C2F89ED92E00E944C0381E003
:10073000CF910C946001089580E090E008950E94AC
:1007400035081F920F920FB60F9211242F933F93EB
:100750008F939F93AF93BF9380918602909187026E
:10076000A0918802B09189023091850223E0230F85
:100770002D3720F40196A11DB11D05C026E8230FD9
:100780000296A11DB11D209385028093860290934D
:100790008702A0938802B093890280918A02909187
:1007A0008B02A0918C02B0918D020196A11DB11D0A
:1007B00080938A0290938B02A0938C02B0938D0257
:1007C000BF91AF919F918F913F912F910F900FBE4D
:1007D0000F901F9018951F920F920FB60F92112431
:1007E0000BB60F922F933F934F935F936F937F932B
:1007F0008F939F93AF93BF93EF93FF938091B90033
:10080000887F803609F49CC068F5883209F45BC0A3
:1008100090F4803109F454C038F4882309F4F6C008
:10082000883009F44DC0F6C0883109F44CC08032DC
:1008300009F45DC0EFC0803409F468C048F4803327
:1008400009F455C0883309F0E5C08093B202D8C0DE
:10085000803509F44FC0883509F45DC0883409F04B
:10086000D9C0D6C0883909F4C7C0A8F4883709F4BC
:1008700067C038F4883609F463C0803709F460C073
:10088000C9C0883809F4B8C0803909F45FC080381D
:1008900009F0C0C05BC0803B09F486C038F4803AE0
:1008A00009F466C0883A09F47FC0B4C0803C09F4FA
:1008B000A7C0883C09F4A4C0883B09F48AC0AAC038
:1008C00080918F0210C09091B1028091B002981770
:1008D00070F5E091B10281E08E0F8093B102F0E0FB
:1008E000E057FD4F80818093BB0085EC86C08093EC
:1008F000B2028EC0E091B10281E08E0F8093B1020E
:100900008091BB00F0E0E057FD4F80839091B102F1
:100910008091B0026EC0E091B10281E08E0F8093B1
:10092000B1028091BB00F0E0E057FD4F80838091E1
:10093000B30281116DC081E080938E0284EA61C0B0
:1009400083E08093B40210925E02CFCF80915E026A
:10095000803208F051C0E0915E0281E08E0F8093FA
:100960005E028091BB00F0E0E25CFD4F8083BDCF72
:1009700085EC8093BC001092B40280915E028032BC
:1009800030F4E0915E02F0E0E25CFD4F1082609195
:100990005E0270E0E0913C02F0913D028EE392E055
:1009A000199510925E0236C084E08093B4021092D2
:1009B0003B0210923A02E0913802F0913902199507
:1009C00080913A02811105C081E080933A02109231
:1009D0001802E0913B0281E08E0F80933B02F0E031
:1009E000E85EFD4F80818093BB0090913B02809137
:1009F0003A02981708F479CF85E88093BC000AC0C2
:100A000085EC8093BC001092B40204C01092B20234
:100A10000E94BE02FF91EF91BF91AF919F918F9184
:100A20007F916F915F914F913F912F910F900BBEEE
:100A30000F900FBE0F901F901895E9EDF2E0138212
:100A4000128288EE93E0A0E0B0E084839583A683D1
:100A5000B7838AE092E09183808380E48093E5020B
:100A60000895789484B5826084BD84B5816084BD26
:100A700085B5826085BD85B5816085BD80916E003C
:100A8000816080936E00109281008091810082606D
:100A900080938100809181008160809381008091AA
:100AA00080008160809380008091B1008460809399
:100AB000B1008091B00081608093B000809191007E
:100AC0008260809391008091910081608093910079
:100AD000809190008160809390008091A10082605D
:100AE0008093A1008091A10081608093A1008091FA
:100AF000A00081608093A00080912101826080939A
:100B00002101809121018160809321018091200148
:100B100081608093200180917A00846080937A00C4
:100B200080917A00826080937A0080917A0081605F
:100B300080937A0080917A00806880937A00109286
:100B4000C10084E390E00E940807FC0142E850E005
:100B50005183408320E832E033832283158214825C
:100B6000168285EE92E09087878356874587308B83
:100B70002787128A118AC1E0C38B958B848B538F90
:100B8000428F358F248F178E168E62E060A392A35A
:100B900081A350A747A332A721A714A613A623E039
:100BA00025A797A786A7F0938202E09381028AE0A7
:100BB00090E00E940807FC01118210828EE190E013
:100BC000938382838CE390E0958384838AE590E02D
:100BD0009783868388E790E091878087F0938402EB
:100BE000E093830280E48093E50210926002109209
:100BF0005F021092B6021092D8021092B402C09313
:100C0000B30210928E0284E10E94BD0185E10E9430
:100C1000BD018091B9008E7F8093B9008091B900A9
:100C20008D7F8093B90088E48093B80085E4809339
:100C3000BC0060E080E00E9480038091E502C093E8
:100C4000B5028093D7021092B6021092D80260E0EB
:100C500089ED92E00E944C0381E00E946001809146
:100C6000E5029091B4029111FCCF91E09093B4020F
:100C70009093B3022FEF2093B2021092B102109220
:100C8000B00290938F0290918F02880F892B8093EE
:100C90008F0280918E02813061F410928E028091D9
:100CA0008F028093BB008091BC0083FDF8CF85EC60
:100CB00001C085EE8093BC008091B4028130E1F3E5
:100CC0008091B102811103C08091B10201C081E025
:100CD000A0E9B2E021E632E0F9019E2F921B9817BD
:100CE00018F49D919193F9CF1092600280935F0266
:100CF00089ED92E00E940003C82F682F6F76606133
:100D000080E00E94800360E78EEF0E9480036C2FDA
:100D100080E00E94800365E070E080E090E00E9447
:100D200059026C2F616A80E00E94800300E010E0AD
:100D3000BB24B394E12CF12CC12CD12CE091810285
:100D4000F0918202EC0DFD1DC481D58180819181DD
:100D5000C80FD91FA0918302B0918402AE0DBF1DB0
:100D60002D913C9182819381C20FD31F8C179D07D7
:100D700008F4EC0166810780F085E02D8081B09257
:100D8000B5028093D7021092B6021092D80284E086
:100D9000689FB00111246A5F7F4F89ED92E00E9445
:100DA0004C0380E090E00E947B0380E090E00E9492
:100DB0007B03CE010E947B038D2F90E00E947B037A
:100DC00081E00E9460018DE0C80ED11C84E3C8164A
:100DD000D10409F0B3CF68EE73E080E090E00E94A8
:100DE000590282E0E80EF11C8AE0E816F10409F0ED
:100DF000A3CF0115110509F49DCF0E9400009ACFE1
:100E0000EE0FFF1F881F8BBF0790F691E02D1994FE
:100E1000CF93DF938230910510F482E090E0E0916F
:100E2000E802F091E90220E030E0C0E0D0E0309745
:100E300011F14081518148175907C0F048175907EF
:100E400061F482819381209719F09B838A832BC060
:100E50009093E9028093E80226C02115310519F02C
:100E60004217530718F49A01BE01DF01EF01028017
:100E7000F381E02DDCCF2115310509F1281B390B59
:100E80002430310590F412968D919C911397611541
:100E9000710521F0FB019383828304C09093E902E2
:100EA0008093E802FD01329644C0FD01E20FF31F7A
:100EB00081939193225031092D933C933AC0209114
:100EC000E6023091E702232B41F420910202309197
:100ED00003023093E7022093E60220910002309152
:100EE00001022115310541F42DB73EB740910402AE
:100EF00050910502241B350BE091E602F091E702C8
:100F0000E217F307A0F42E1B3F0B2817390778F0E0
:100F1000AC014E5F5F4F2417350748F04E0F5F1F3F
:100F20005093E7024093E6028193919302C0E0E080
:100F3000F0E0CF01DF91CF9108950F931F93CF93EE
:100F4000DF93009709F48CC0FC0132971382128260
:100F50000091E8021091E9020115110581F4208148
:100F60003181820F931F2091E6023091E70228170A
:100F7000390779F5F093E702E093E60271C0D801F2
:100F800040E050E0AE17BF0750F412962D913C910F
:100F90001397AD012115310509F1D901F3CF9D0159
:100FA000DA013383228360817181860F971F821754
:100FB000930769F4EC0128813981260F371F2E5FD2
:100FC0003F4F318320838A819B8193838283452B8A
:100FD00029F4F093E902E093E80242C01396FC93EF
:100FE000EE931297ED01499159919E01240F351FFF
:100FF000E217F30771F480819181840F951F0296A7
:1010000011969C938E938281938113969C938E93D9
:101010001297E0E0F0E0D80112968D919C91139721
:10102000009719F0F8018C01F6CF8D919C919801F1
:101030002E5F3F4F820F931F2091E6023091E7020F
:101040002817390769F4309729F41092E9021092B1
:10105000E80202C0138212821093E7020093E602B4
:10106000DF91CF911F910F91089581E090E0F89466
:081070000C943A08F894FFCF3C
:101078000000EA028000000000004C031C039C03EF
:08108800F00214030003F10261
:00000001FF
