:100000000C9443020C9474020C9474020C947402C9
:100010000C9474020C9474020C9474020C94740288
:100020000C9474020C9474020C9474020C94740278
:100030000C9474020C9474020C9474020C94740268
:100040000C9474020C9474020C9474020C94740258
:100050000C9474020C9474020C9474020C94460A6E
:100060000C9474020C94BA0A0C94900A0C947402C6
:100070000C9474020C9474020C9474020C94740228
:100080000C9474020C9474020C9474020C94740218
:100090000C9474020C9474020C9474020C94750504
:1000A0000C9474020C9474020C9474020C947402F8
:1000B0000C9474020C9474020C9474020C947402E8
:1000C0000C9474020C9474020C9474020C947402D8
:1000D0000C9474020C9474020C9474020C947402C8
:1000E0000C9474020C9485020C94F5030C948C030C
:1000F0000C942C030C9496030C94A7020C941E03EE
:100100000C9476020C945C030C94BA080C94F00ADC
:100110000C9422030C9401090C9492030C941F0379
:100120000C9461040C9499020C9485080C9425039A
:10013000202020483A2050574D2048616E646C655D
:1001400072094E65772050574D2076616C3A090050
:100150002020453A204920676F7420746F2074680E
:10016000652050574D4576656E742E00453A5057C0
:100170004D4576656E74000957616974696E672034
:10018000666F723A002020453A2043757272656EA0
:10019000742054696D653A00453A44656C6179454F
:1001A00076656E740020413A2041646465642000E5
:1001B00020413A20466972737420456C656D656E06
:1001C000740020413A204164646564200020413A73
:1001D000204E65787420456C656D656E7400204115
:1001E0003A20416464696E67200020617420706F5A
:1001F0007320002020453A2056616C75653A200036
:100200002020453A204572726F722C2073657175FB
:10021000656E63655F6C656E6774682069732074D2
:100220006F6F206C6F6E672E002020453A2053655B
:100230007175656E6365204C656E6774683A090078
:100240002020453A2053706565643A090020204516
:100250003A205461726765743A09002020453A20BB
:1002600043757272656E743A09002020453A204346
:100270007265617465642050450020413A204164F4
:1002800064696E67205045002020453A204372651E
:1002900061746564204445002020453A204372651E
:1002A0006174696E672044450020413A20416464CE
:1002B000696E6720444500202020483A204F66663A
:1002C0007365743A0900202020483A2050696E3A3C
:1002D0000900202020483A204D61782056616C3A70
:1002E0000900202020483A204D696E2056616C3A62
:1002F00009004E657720536572766F21004672655E
:1003000065204D656D6F72793A20002D2D2D2D2DB4
:100310002D2D2D2D2D2D53455155454E4345204511
:100320004E4445442D2D2D2D2D2D2D2D2D2D2D00C3
:10033000706F7461746F0046726565204D656D6FF6
:1003400072793A200052756E6E69676E20416E694F
:100350006D6174696F6E0A0046726565204D656D4A
:100360006F72793A200044656C6179204576656E3C
:10037000742061646465640A0046726565204D6599
:100380006D6F72793A200046726565204D656D6F1C
:1003900072793A200044656C6179204576656E7407
:1003A0002061646465640A0046726565204D656D70
:1003B0006F72793A200050574D204576656E742053
:1003C00061646465640A0046726565204D656D6F01
:1003D00072793A2000416E696D6174696F6E2044D4
:1003E00065636C617265640A00536572766F2044C0
:1003F00065636C617265640A0046726565204D65CF
:100400006D6F72793A20002D2D2D2D2D2D2D2D2D36
:100410002D2D2D2D2D2D2D2D46454152204D592070
:1004200057524154482121212D2D2D2D2D2D2D2D7B
:100430002D2D2D2D2D2D2D2D2D2D2D002D2D2D2D19
:100440002D2D2D2D2D2D2D2D2D4920414D20544864
:1004500045204D49474854592054524F47444F5224
:100460002121212D2D2D2D2D2D2D2D2D2D2D2D2DE0
:100470002D2D2D2D0046726565204D656D6F7279AD
:100480003A200000F00A11241FBECFEFD1E2DEBFF8
:10049000CDBF00E00CBF12E0A0E0B2E0E4E6FEE178
:1004A00000E00BBF02C007900D92A839B107D9F741
:1004B00023E0A8E9B2E001C01D92A13EB207E1F736
:1004C00012E0C3E4D2E000E006C021970109802FCA
:1004D000FE010E94230FC234D10780E00807A9F76C
:1004E0000E94290B0C94300F0C940000FC01538DDA
:1004F000448D252F30E0842F90E0821B930B5417FE
:1005000010F0CF96089501970895FC01918D828D8A
:10051000981761F0828DDF01A80FB11D5D968C9157
:10052000928D9F5F9F73928F90E008958FEF9FEF62
:100530000895FC01918D828D981731F0828DE80F1E
:10054000F11D858D90E008958FEF9FEF0895FC01D8
:10055000918D228D892F90E0805C9F4F821B9109A5
:100560008F739927089580E090E0892B21F00E94F5
:10057000B008811125C080E090E0892B41F080E037
:1005800090E0892B21F00E94000081111CC080E0C6
:1005900090E0892B41F080E090E0892B21F00E94CF
:1005A0000000811113C080E090E0892BA1F080E071
:1005B00090E0892B81F00E94000081110AC008950B
:1005C0000E940000D8CF0E940000E1CF0E940000EE
:1005D000EACF0C940000089585ED8093BC008091D3
:1005E000BC0084FDFCCF1092050308954091DF020A
:1005F000262F30E0240F311D21323105DCF420910B
:1006000005032430C9F4FC0180E090E0861758F41B
:100610003091DF022191DC01A354BD4FA30FB11D26
:100620002C930196F3CF8091DF02680F6093DF0275
:1006300080E0089581E0089582E0089508958FEFA5
:100640009FEF08958FEF9FEF08958091BC0290E097
:100650009195819591090895CF92DF92EF92FF9243
:100660000F931F93CF93DF937C01262F972F8A013F
:100670008091BB02882391F0C62FD72F6E01C40E44
:10068000D51ECC15DD0571F06991D701ED91FC9176
:100690000190F081E02DC7011995F3CF642F822FCF
:1006A0000E94F602C801DF91CF911F910F91FF9038
:1006B000EF90DF90CF900895CF93DF931F92CDB747
:1006C000DEB769832091BB022223D1F02091BA02C8
:1006D000203240F021E030E0FC013383228380E0CF
:1006E00090E015C08091B902E82FF0E0E756FD4F89
:1006F000998190838F5F8093B9028093BA0205C07D
:1007000061E0CE0101960E94F60281E090E00F9038
:10071000DF91CF910895089580E090E008950895C5
:100720000E942B0F88E991E00C945A098CE691E025
:100730000C945A090F931F93CF93DF93EC018B0115
:100740008EED91E00E943909D801ED91FC91028073
:10075000F381E02DC80119958A819B81892B91F441
:1007600080EB91E00E945A0984E090E00E94E70C3F
:10077000FC0111830083138212829B838A8385EAA2
:1007800091E022C08DEC91E00E945A090A80DB8141
:10079000C02DEA81FB81309751F080819181DC018D
:1007A000ED91FC910280F381E02D1995EFCF84E06B
:1007B00090E00E94E70CFC011183008313821282F7
:1007C0009B838A8382EC91E00E943909EA81FB8154
:1007D00080819181DC01ED91FC910280F381E02D1B
:1007E000DF91CF911F910F9119940F931F93CF9386
:1007F000DF93EC018A819B81AC81BD81892B8A2B9F
:100800008B2B79F42FB7F89480912B0390912C03C4
:10081000A0912D03B0912E032FBF8A839B83AC83BD
:10082000BD8385E891E00E9439092FB7F894609163
:100830002B0370912C0380912D0390912E032FBFD9
:100840004AE00E94660987E791E00E9439094E81DB
:100850005F81688579858A819B81AC81BD818A01B0
:100860009B01080F191F2A1F3B1FC901B8010E94D5
:10087000DE094E815F81688579858A819B81AC81A3
:10088000BD81840F951FA61FB71F2FB7F894409105
:100890002B0350912C0360912D0370912E032FBFD9
:1008A00084179507A607B70730F41A821B821C82AB
:1008B0001D8280E001C081E0DF91CF911F910F91F7
:1008C0000895BF92CF92DF92EF92FF920F931F9302
:1008D000CF93DF938C0180E591E00E945A0968EE86
:1008E00073E080E090E00E940C0AD8011A96ED9126
:1008F000FC911B97EE0FFF1F14968D919C911597FD
:10090000E80FF91FC080D1801296ED90FC901397EC
:100910008AE392E00E94000AF701C481D581208118
:100920003181C20FD31FCC0DDD1D22813381BC2E3E
:10093000CD2E2C173D0710F4B22EC32ED7011696DC
:100940006C9116971796ED91FC911897D08081E0E5
:100950008093BB02D09298021092B9021092BA0210
:10096000B4E06B9FB00111246A5F7F4F8CEC93E081
:100970000E945C0380E090E00E94FB0980E090E030
:100980000E94FB098B2D9C2D0E94FB098C2D90E071
:100990000E94FB098091BA02813208F046C0909112
:1009A00005039111FCCF92E09093050391E09093A1
:1009B00007039FEF90930403109229038093280369
:1009C000A9E9B2E028E033E0F9019E2F921B9817C5
:1009D00018F49D919193F9CF10922A0380912A03E4
:1009E000DD0CD82AD0922A0380910603813061F46D
:1009F0001092060380912A038093BB008091BC0073
:100A000083FDF8CF85EC01C085EE8093BC0080911A
:100A100005038230E1F3809104038F3F31F0809130
:100A20000403803211F0809104031092B9021092F5
:100A3000BA021092BB0280E391E00E943909F701EB
:100A4000828193818C179D0708F4EC01CE010E94EE
:100A5000EB09F80182859385A485B5854681578188
:100A600060857185415051096109710984179507A5
:100A7000A607B70731F4128613861486158680E020
:100A800009C00196A11DB11DF80182879387A48733
:100A9000B58781E0DF91CF911F910F91FF90EF908B
:100AA000DF90CF90BF900895FC01848DDF01A80FE7
:100AB000B11DA35ABF4F2C91848D90E001968F7386
:100AC0009927848FA689B7892C93A089B1898C91A5
:100AD00080648C93938D848D981306C00288F3896B
:100AE000E02D80818F7D808308951F920F920FB635
:100AF0000F9211240BB60F922F933F934F935F9356
:100B00006F937F938F939F93AF93BF93EF93FF93D5
:100B10008091B900887F803609F49CC068F58832DE
:100B200009F45BC090F4803109F454C038F4882390
:100B300009F4F6C0883009F44DC0F6C0883109F4D4
:100B40004CC0803209F45DC0EFC0803409F468C045
:100B500048F4803309F455C0883309F0E5C0809328
:100B60000403D8C0803509F44FC0883509F45DC04E
:100B7000883409F0D9C0D6C0883909F4C7C0A8F4B0
:100B8000883709F467C038F4883609F463C08037C1
:100B900009F460C0C9C0883809F4B8C0803909F4C4
:100BA0005FC0803809F0C0C05BC0803B09F486C0DC
:100BB00038F4803A09F466C0883A09F47FC0B4C0BA
:100BC000803C09F4A7C0883C09F4A4C0883B09F420
:100BD0008AC0AAC080912A0310C0909129038091F5
:100BE0002803981770F5E091290381E08E0F809318
:100BF0002903F0E0E85FFC4F80818093BB0085EC27
:100C000086C0809304038EC0E091290381E08E0F9B
:100C1000809329038091BB00F0E0E85FFC4F808364
:100C200090912903809128036EC0E091290381E00F
:100C30008E0F809329038091BB00F0E0E85FFC4FAA
:100C400080838091070381116DC081E0809306034A
:100C500084EA61C083E08093050310920303CFCF41
:100C600080910303803208F051C0E091030381E0DA
:100C70008E0F809303038091BB00F0E0ED51FD4F98
:100C80008083BDCF85EC8093BC00109205038091DA
:100C90000303803230F4E0910303F0E0ED51FD4FA7
:100CA00010826091030370E0E091E102F091E202B2
:100CB00083EE92E019951092030336C084E080938E
:100CC00005031092E0021092DF02E091DD02F09144
:100CD000DE0219958091DF02811105C081E08093C9
:100CE000DF021092BD02E091E00281E08E0F80935E
:100CF000E002F0E0E354FD4F80818093BB009091CF
:100D0000E0028091DF02981708F479CF85E880939C
:100D1000BC000AC085EC8093BC001092050304C09F
:100D2000109204030E94EC02FF91EF91BF91AF91EA
:100D30009F918F917F916F915F914F913F912F91F3
:100D40000F900BBE0F900FBE0F901F901895CF9372
:100D5000DF931F921F92CDB7DEB72091DD03309154
:100D6000DE03CE0101962115310519F4815E934011
:100D700018C0AC01421B530BE091DF03F091E0037C
:100D800080E090E0309759F09C012E5F3F4F8081CA
:100D90009181820F931F0280F381E02DF3CF840FA6
:100DA000951F9A83898389819A810F900F90DF9193
:100DB000CF910895EF92FF920F931F93CF93DF93FC
:100DC00000D01F92CDB7DEB78C0189EA92E049834B
:100DD0005A836B837C830E945A098AE090E00E94C8
:100DE000E70C7C0182E192E0F7019183808388E93E
:100DF00092E00E945A0949815A816B817C81F701F6
:100E0000468357836087718712821382148215820A
:100E100088E892E00E945A09B701C8010F900F902C
:100E20000F900F90DF91CF911F910F91FF90EF9056
:100E30000C949A034F925F926F927F928F929F923F
:100E4000AF92BF92CF92DF92EF92FF920F931F93D8
:100E5000CF93DF935C014B016A01280139018AE7D6
:100E600092E00E945A098EE090E00E94E70CEC01AB
:100E7000F501E680F7808AE092E0998388831A86FC
:100E80001B861C861D866624772441145104610448
:100E90007104F9F0C701A0E0B0E0BC01CD016C190C
:100EA0007D098109910997FF07C0909580957095FC
:100EB00061957F4F8F4F9F4FA30192010E94010FB9
:100EC000CA01B9010E945A0E0E94140E0E942B0EF4
:100ED00004C061E070E080E090E06E837F838887EB
:100EE00099876138FFE37F0720F4CB01880F991FB2
:100EF00002C08FEF9FEF0E94E70C9D838C838BE5F0
:100F000092E00E943909C7010E94EB098DE492E04A
:100F10000E943909C6010E94EB0980E492E00E9418
:100F20003909C301B2010E94DE0989E292E00E9400
:100F300039096E817F81888599850E94DE090E942A
:100F400035094A855B856C857D858E819F81A88565
:100F5000B985481759076A077B0708F059C0EC1490
:100F6000FD0421F0C7018C199D0902C080E090E0CA
:100F7000A0E0B0E084159505A605B705B0F04114D2
:100F800051046104710489F0EC14FD0418F4E40CBC
:100F9000F51C0CC0CE14DF0418F4E418F50806C0E4
:100FA00080E092E00E945A0901C076014A855B8583
:100FB0006C857D85CA01880F991FEC81FD81E80F42
:100FC000F91FF182E0824F5F5F4F6F4F7F4F4A877B
:100FD0005B876C877D8783EF91E00E943909C701A9
:100FE000A0E0B0E04AE0BC01CD010E9466098AEEB3
:100FF00091E00E9439098A859B85AC85BD85BC013D
:10100000CD0161507109810991090E94DE0999CFD2
:101010001A861B861C861D869B828A828AE692E03F
:101020000E945A09BE01C5010E949A03F501D782A8
:10103000C682DF91CF911F910F91FF90EF90DF90CB
:10104000CF90BF90AF909F908F907F906F905F9068
:101050004F900895CF93DF93EC018AE592E00E94D0
:10106000000A8A819B81892B31F48BE692E0DF9123
:10107000CF910C94000A81E892E00E942309EA8152
:10108000FB8180819181DC01ED91FC910280F381F3
:10109000E02D19950A80DB81C02D0A80DB81C02DEF
:1010A000209719F381E892E00E94230988819981B1
:1010B000DC01ED91FC910280F381E02D1995EDCFDB
:1010C0003FB7F8948091D9039091DA03A091DB03A4
:1010D000B091DC0326B5A89B05C02F3F19F00196FF
:1010E000A11DB11D3FBFBA2FA92F982F8827820FAE
:1010F000911DA11DB11DBC01CD0142E0660F771FFE
:10110000881F991F4A95D1F70895CF92DF92EF92E9
:10111000FF920F931F93CF93DF936C017A018B01A2
:10112000C0E0D0E0CE15DF0589F0D8016D918D01CA
:10113000D601ED91FC910190F081E02DC601199549
:10114000892B11F47E0102C02196ECCFC701DF91FB
:10115000CF911F910F91FF90EF90DF90CF90089566
:101160008FE293E00E94A70221E0892B09F420E09E
:10117000822F0895EF92FF920F931F93CF93DF93E7
:10118000EC0181E0888F9B8D8C8D981305C0E889D8
:10119000F989808185FD24C0F62E0B8D10E00F5F4C
:1011A0001F4F0F731127E02E8C8DE8120CC00FB665
:1011B00007FCFACFE889F989808185FFF5CFCE0158
:1011C0000E945405F1CF8B8DFE01E80FF11DE35A0B
:1011D000FF4FF0820B8FEA89FB898081806207C014
:1011E000EE89FF896083E889F98980818064808342
:1011F00081E090E0DF91CF911F910F91FF90EF90F0
:101200000895CF93DF93EC01888D8823C9F0EA8994
:10121000FB89808185FD05C0A889B9898C9186FDEF
:101220000FC00FB607FCF5CF808185FFF2CFA889EC
:10123000B9898C9185FFEDCFCE010E945405E7CF8F
:10124000DF91CF910895009769F0FC010190002093
:10125000E9F73197AF01481B590BBC018FE293E0CE
:101260000C94850880E090E0089584E892E00C9466
:1012700023090F931F93CF93DF938C01C0E0D0E03D
:10128000F801EC0FFD1F6491662371F0E0912F03CC
:10129000F09130030190F081E02D8FE293E01995F9
:1012A000892B11F02196ECCFCE01DF91CF911F91C8
:1012B0000F910895CF93DF930E943909EC010E94AA
:1012C00035098C0F9D1FDF91CF9108958F929F92CA
:1012D000AF92BF920F931F93CF93DF93CDB7DEB73B
:1012E000A1970FB6F894DEBF0FBECDBF19A2423052
:1012F00008F44AE08E010F5D1F4F842E912CA12C23
:10130000B12CA50194010E94010FE62FB901CA0179
:1013100001501109EA3014F4E05D01C0E95CD80124
:10132000EC93232B242B252B61F7C8010E94230962
:10133000A1960FB6F894DEBF0FBECDBFDF91CF915F
:101340001F910F91BF90AF909F908F900895CF9273
:10135000DF92EF92FF92CF93DF936C01990FEE082B
:10136000FF08F7FE1AC0E0912F03F09130030190BF
:10137000F081E02D6DE28FE293E01995EC01662794
:101380007727CB016C197D098E099F094AE00E94DD
:1013900066097C01EC0EFD1E06C04AE0C701B601DD
:1013A0000E9466097C010E9435098E0D9F1DDF9108
:1013B000CF91FF90EF90DF90CF900895CF93DF9380
:1013C0004AE00E946609EC010E9435098C0F9D1FBE
:1013D000DF91CF910895CF93DF93BC0180E090E03F
:1013E0004AE00E946609EC010E9435098C0F9D1F9E
:1013F000DF91CF910895682F8CEC93E00C945C03FF
:10140000CF93DF930E942309EC010E9435098C0FD2
:101410009D1FDF91CF9108958F929F92AF92BF92BF
:10142000CF92DF92EF92FF926B017C010E946008E5
:101430004B015C01C114D104E104F104F1F00E94FC
:101440006008DC01CB0188199909AA09BB09883E0B
:101450009340A105B10570F321E0C21AD108E1085B
:10146000F10888EE880E83E0981EA11CB11CC114FF
:10147000D104E104F10419F7DDCFFF90EF90DF9084
:10148000CF90BF90AF909F908F9008951F920F9232
:101490000FB60F9211242F933F938F939F93AF9387
:1014A000BF9380912B0390912C03A0912D03B091B9
:1014B0002E033091D80323E0230F2D3720F401961B
:1014C000A11DB11D05C026E8230F0296A11DB11D67
:1014D0002093D80380932B0390932C03A0932D0388
:1014E000B0932E038091D9039091DA03A091DB038E
:1014F000B091DC030196A11DB11D8093D903909397
:10150000DA03A093DB03B093DC03BF91AF919F910B
:101510008F913F912F910F900FBE0F901F901895B4
:101520001F920F920FB60F9211240BB60F922F93AA
:101530003F934F935F936F937F938F939F93AF935B
:10154000BF93EF93FF938FE293E00E945405FF91C6
:10155000EF91BF91AF919F918F917F916F915F912B
:101560004F913F912F910F900BBE0F900FBE0F9098
:101570001F9018951F920F920FB60F9211240BB661
:101580000F922F938F939F93EF93FF93E0913F03DD
:10159000F09140038081E0914503F091460382FD84
:1015A00012C09081809148038F5F8F73209149030F
:1015B000821751F0E0914803F0E0E15DFC4F958F18
:1015C0008093480301C08081FF91EF919F918F919B
:1015D0002F910F900BBE0F900FBE0F901F9018957C
:1015E000EFE2F3E01382128288EE93E0A0E0B0E035
:1015F00084839583A683B7832AE132E031832083F5
:1016000025EC30E03587248724EC30E037872687C7
:1016100020EC30E0318B208B21EC30E0338B228BBF
:1016200022EC30E0358B248B26EC30E0378B268B98
:10163000118E128E138E148EECECF3E01382128254
:1016400084839583A683B7838CE292E09183808321
:101650000895789484B5826084BD84B5816084BD2A
:1016600085B5826085BD85B5816085BD80916E0040
:10167000816080936E001092810080918100826071
:1016800080938100809181008160809381008091AE
:1016900080008160809380008091B100846080939D
:1016A000B1008091B00081608093B0008091910082
:1016B000826080939100809191008160809391007D
:1016C000809190008160809390008091A100826061
:1016D0008093A1008091A10081608093A1008091FE
:1016E000A00081608093A00080912101826080939E
:1016F000210180912101816080932101809120014D
:1017000081608093200180917A00846080937A00C8
:1017100080917A00826080937A0080917A00816063
:1017200080937A0080917A00806880937A0010928A
:10173000C100E0913F03F091400382E08083E0919B
:101740003B03F0913C031082E0913D03F0913E0396
:101750008FEC808310924703E0914303F0914403A0
:1017600086E08083E0914103F091420380818061B3
:101770008083E0914103F0914203808188608083FF
:10178000E0914103F0914203808180688083E09181
:101790004103F091420380818F7D808385E794E04F
:1017A0000E9439090E94A7060E94A7098CE394E0D1
:1017B0000E945A0987E094E00E945A0989EF93E059
:1017C0000E9439090E94A7060E94A70989E090E0BB
:1017D0000E94E70C7C0182E890E0D70111969C936F
:1017E0008E9380E892E013969C938E9312971596B1
:1017F0001C921E92149716961C92169718961C927D
:101800001E92179782EE92E00E94390982E890E0DA
:101810000E94EB0982ED92E00E94390980E892E093
:101820000E94EB0986EC92E00E9439094AE060E0F0
:1018300070E0CB010E9466090E94350987EB92E0B7
:101840000E94390980E090E00E94EB0982EF92E06B
:101850000E945A0989EE93E00E945A0988E090E0BC
:101860000E94E70CEC011B821A821F821E8285ED0A
:1018700093E00E945A0987EC93E00E9439090E9484
:10188000A7060E94A709CE010E942A0801E010E0E5
:1018900020E030E044E650E0B701CE010E941A0794
:1018A00086EB93E00E945A0988EA93E00E94390986
:1018B0000E94A7060E94A709CE010E942A0848EEAE
:1018C00053E060E070E0CE010E94DA0685E993E023
:1018D0000E945A0987E893E00E9439090E94A706EE
:1018E0000E94A709CE010E942A0802E010E020E031
:1018F00030E048EC50E0B701CE010E941A0787E8BB
:1019000092E00E94000A89E793E00E9439090E9450
:10191000A7060E94A709CE010E942A0840ED57E0C1
:1019200060E070E0CE010E94DA0686E693E00E9455
:101930005A0988E593E00E9439090E94A7060E948F
:10194000A709CE010E942A0885E493E00E945A0963
:1019500087E393E00E9439090E94A7060E94A70925
:101960008C819D81892B21F48A819B819D838C832D
:10197000EC81FD8180819181DC01ED91FC910190F0
:10198000F081E02D1995882339F064E670E080E05D
:1019900090E00E940C0AE4CFEC81FD81828193816A
:1019A0009D838C83892B89F780E393E00E945A09F9
:1019B0008BE093E00E945A098DEF92E00E94390972
:1019C0000E94A7060E94A7090E94B302FDCFCF93F1
:1019D000DF938230910510F482E090E0E091DF0324
:1019E000F091E00320E030E0C0E0D0E0309711F16A
:1019F0004081518148175907C0F04817590761F4D1
:101A000082819381209719F09B838A832BC09093C6
:101A1000E0038093DF0326C02115310519F042173A
:101A2000530718F49A01BE01DF01EF010280F38130
:101A3000E02DDCCF2115310509F1281B390B2430AD
:101A4000310590F412968D919C9113976115710553
:101A500021F0FB019383828304C09093E003809381
:101A6000DF03FD01329644C0FD01E20FF31F8193B5
:101A70009193225031092D933C933AC02091DD037C
:101A80003091DE03232B41F42091020230910302B6
:101A90003093DE032093DD03209100023091010298
:101AA0002115310541F42DB73EB740910402509104
:101AB0000502241B350BE091DD03F091DE03E217F4
:101AC000F307A0F42E1B3F0B2817390778F0AC0161
:101AD0004E5F5F4F2417350748F04E0F5F1F50933E
:101AE000DE034093DD038193919302C0E0E0F0E0D8
:101AF000CF01DF91CF9108950F931F93CF93DF9381
:101B0000009709F48CC0FC01329713821282009175
:101B1000DF031091E0030115110581F4208131816B
:101B2000820F931F2091DD033091DE0328173907C0
:101B300079F5F093DE03E093DD0371C0D80140E056
:101B400050E0AE17BF0750F412962D913C911397B9
:101B5000AD012115310509F1D901F3CF9D01DA015C
:101B60003383228360817181860F971F82179307C9
:101B700069F4EC0128813981260F371F2E5F3F4F12
:101B8000318320838A819B8193838283452B29F42F
:101B9000F093E003E093DF0342C01396FC93EE93CF
:101BA0001297ED01499159919E01240F351FE217BB
:101BB000F30771F480819181840F951F029611962D
:101BC0009C938E938281938113969C938E9312970C
:101BD000E0E0F0E0D80112968D919C911397009768
:101BE00019F0F8018C01F6CF8D919C9198012E5F30
:101BF0003F4F820F931F2091DD033091DE032817A2
:101C0000390769F4309729F41092E0031092DF034A
:101C100002C0138212821093DE030093DD03DF9172
:101C2000CF911F910F9108950E94E20E90F09F377F
:101C300048F4911116F40C94FB0E60E070E080E81B
:101C40009FE3089526F01B16611D711D811D0C94E4
:101C5000970E0C94B20E0E94C80E88F09F5798F011
:101C6000B92F9927B751B0F0E1F0660F771F881FA1
:101C7000991F1AF0BA95C9F714C0B13091F00E94BB
:101C8000FA0EB1E008950C94FA0E672F782F88278A
:101C9000B85F39F0B93FCCF3869577956795B395E2
:101CA000D9F73EF490958095709561957F4F8F4F51
:101CB0009F4F0895E89409C097FB3EF49095809556
:101CC000709561957F4F8F4F9F4F9923A9F0F92F02
:101CD00096E9BB279395F695879577956795B79580
:101CE000F111F8CFFAF4BB0F11F460FF1BC06F5F66
:101CF0007F4F8F4F9F4F16C0882311F096E911C078
:101D0000772321F09EE8872F762F05C0662371F098
:101D100096E8862F70E060E02AF09A95660F771FAC
:101D2000881FDAF7880F9695879597F90895882385
:101D300071F4772321F09850872B762F07C0662304
:101D400011F499270DC09051862B70E060E02AF0C5
:101D50009A95660F771F881FDAF7880F96958795F3
:101D600097F908959F3F31F0915020F4879577952A
:101D70006795B795880F911D9695879597F9089562
:101D800057FD9058440F551F59F05F3F71F047952C
:101D9000880F97FB991F61F09F3F79F08795089511
:101DA000121613061406551FF2CF4695F1DF08C030
:101DB000161617061806991FF1CF8695710561054D
:101DC000089408950E94C80EA0F0BEE7B91788F4E1
:101DD000BB279F3860F41616B11D672F782F882710
:101DE000985FF7CF869577956795B11D939596394E
:101DF000C8F30895E894BB2766277727CB0197F9A6
:101E00000895A1E21A2EAA1BBB1BFD010DC0AA1F3B
:101E1000BB1FEE1FFF1FA217B307E407F50720F053
:101E2000A21BB30BE40BF50B661F771F881F991FCE
:101E30001A9469F760957095809590959B01AC0117
:101E4000BD01CF010895EE0FFF1F881F8BBF0790C4
:101E5000F691E02D199481E090E0F8940C94300F05
:041E6000F894FFCF24
:101E64000000E1038000000000006104960300000C
:101E74000000F503920300000000BA08850876020A
:101E84000109A70285029902000000005C032C03EB
:101E94008C031E03250322031F03202020483A201D
:101EA4004920676F7420746F207468652050574D03
:101EB4002068616E646C65722E005072696E74697C
:101EC4006E67206576656E74733A00446F6E6520A4
:101ED4007072696E67696E67206576656E74732EBD
:101EE400002D20000D0A0050574D204576656E7474
:081EF4002061646465640A00CA
:00000001FF
